{
    "_format": "hh-sol-artifact-1",
    "contractName": "MetaCraft",
    "sourceName": "contracts/MetaCraft.sol",
    "abi": [
        {
            "inputs": [
                {
                    "internalType": "uint256",
                    "name": "_mintSupplyCount",
                    "type": "uint256"
                },
                {
                    "internalType": "uint256",
                    "name": "_ownerMintReserveCount",
                    "type": "uint256"
                },
                {
                    "internalType": "uint256",
                    "name": "_maxMintPerAddress",
                    "type": "uint256"
                }
            ],
            "stateMutability": "nonpayable",
            "type": "constructor"
        },
        {
            "anonymous": false,
            "inputs": [
                {
                    "indexed": true,
                    "internalType": "address",
                    "name": "owner",
                    "type": "address"
                },
                {
                    "indexed": true,
                    "internalType": "address",
                    "name": "approved",
                    "type": "address"
                },
                {
                    "indexed": true,
                    "internalType": "uint256",
                    "name": "tokenId",
                    "type": "uint256"
                }
            ],
            "name": "Approval",
            "type": "event"
        },
        {
            "anonymous": false,
            "inputs": [
                {
                    "indexed": true,
                    "internalType": "address",
                    "name": "owner",
                    "type": "address"
                },
                {
                    "indexed": true,
                    "internalType": "address",
                    "name": "operator",
                    "type": "address"
                },
                {
                    "indexed": false,
                    "internalType": "bool",
                    "name": "approved",
                    "type": "bool"
                }
            ],
            "name": "ApprovalForAll",
            "type": "event"
        },
        {
            "anonymous": false,
            "inputs": [
                {
                    "indexed": true,
                    "internalType": "address",
                    "name": "previousOwner",
                    "type": "address"
                },
                {
                    "indexed": true,
                    "internalType": "address",
                    "name": "newOwner",
                    "type": "address"
                }
            ],
            "name": "OwnershipTransferred",
            "type": "event"
        },
        {
            "anonymous": false,
            "inputs": [
                {
                    "indexed": true,
                    "internalType": "address",
                    "name": "from",
                    "type": "address"
                },
                {
                    "indexed": true,
                    "internalType": "address",
                    "name": "to",
                    "type": "address"
                },
                {
                    "indexed": true,
                    "internalType": "uint256",
                    "name": "tokenId",
                    "type": "uint256"
                }
            ],
            "name": "Transfer",
            "type": "event"
        },
        {
            "inputs": [
                {
                    "internalType": "address",
                    "name": "to",
                    "type": "address"
                },
                {
                    "internalType": "uint256",
                    "name": "tokenId",
                    "type": "uint256"
                }
            ],
            "name": "approve",
            "outputs": [],
            "stateMutability": "nonpayable",
            "type": "function"
        },
        {
            "inputs": [
                {
                    "internalType": "address",
                    "name": "owner",
                    "type": "address"
                }
            ],
            "name": "balanceOf",
            "outputs": [
                {
                    "internalType": "uint256",
                    "name": "",
                    "type": "uint256"
                }
            ],
            "stateMutability": "view",
            "type": "function"
        },
        {
            "inputs": [
                {
                    "internalType": "string",
                    "name": "_ipfsGateway",
                    "type": "string"
                }
            ],
            "name": "emergencySetIPFSGateway",
            "outputs": [],
            "stateMutability": "nonpayable",
            "type": "function"
        },
        {
            "inputs": [
                {
                    "internalType": "uint256",
                    "name": "tokenId",
                    "type": "uint256"
                }
            ],
            "name": "getApproved",
            "outputs": [
                {
                    "internalType": "address",
                    "name": "",
                    "type": "address"
                }
            ],
            "stateMutability": "view",
            "type": "function"
        },
        {
            "inputs": [
                {
                    "internalType": "uint256",
                    "name": "_tokenId",
                    "type": "uint256"
                }
            ],
            "name": "getSeed",
            "outputs": [
                {
                    "internalType": "int32",
                    "name": "",
                    "type": "int32"
                }
            ],
            "stateMutability": "view",
            "type": "function"
        },
        {
            "inputs": [],
            "name": "ipfsGateway",
            "outputs": [
                {
                    "internalType": "string",
                    "name": "",
                    "type": "string"
                }
            ],
            "stateMutability": "view",
            "type": "function"
        },
        {
            "inputs": [
                {
                    "internalType": "address",
                    "name": "owner",
                    "type": "address"
                },
                {
                    "internalType": "address",
                    "name": "operator",
                    "type": "address"
                }
            ],
            "name": "isApprovedForAll",
            "outputs": [
                {
                    "internalType": "bool",
                    "name": "",
                    "type": "bool"
                }
            ],
            "stateMutability": "view",
            "type": "function"
        },
        {
            "inputs": [],
            "name": "mintEnabled",
            "outputs": [
                {
                    "internalType": "bool",
                    "name": "",
                    "type": "bool"
                }
            ],
            "stateMutability": "view",
            "type": "function"
        },
        {
            "inputs": [],
            "name": "mintSupplyCount",
            "outputs": [
                {
                    "internalType": "uint256",
                    "name": "",
                    "type": "uint256"
                }
            ],
            "stateMutability": "view",
            "type": "function"
        },
        {
            "inputs": [
                {
                    "components": [
                        {
                            "internalType": "uint256",
                            "name": "_tokenId",
                            "type": "uint256"
                        },
                        {
                            "internalType": "int32",
                            "name": "_seed",
                            "type": "int32"
                        },
                        {
                            "internalType": "string",
                            "name": "_tokenMetadataIPFSHash",
                            "type": "string"
                        }
                    ],
                    "internalType": "struct MetaCraft.MintData",
                    "name": "_mintData",
                    "type": "tuple"
                }
            ],
            "name": "mintWorld",
            "outputs": [],
            "stateMutability": "nonpayable",
            "type": "function"
        },
        {
            "inputs": [],
            "name": "name",
            "outputs": [
                {
                    "internalType": "string",
                    "name": "",
                    "type": "string"
                }
            ],
            "stateMutability": "view",
            "type": "function"
        },
        {
            "inputs": [],
            "name": "owner",
            "outputs": [
                {
                    "internalType": "address",
                    "name": "",
                    "type": "address"
                }
            ],
            "stateMutability": "view",
            "type": "function"
        },
        {
            "inputs": [
                {
                    "internalType": "uint256",
                    "name": "tokenId",
                    "type": "uint256"
                }
            ],
            "name": "ownerOf",
            "outputs": [
                {
                    "internalType": "address",
                    "name": "",
                    "type": "address"
                }
            ],
            "stateMutability": "view",
            "type": "function"
        },
        {
            "inputs": [],
            "name": "renounceOwnership",
            "outputs": [],
            "stateMutability": "nonpayable",
            "type": "function"
        },
        {
            "inputs": [
                {
                    "internalType": "address",
                    "name": "from",
                    "type": "address"
                },
                {
                    "internalType": "address",
                    "name": "to",
                    "type": "address"
                },
                {
                    "internalType": "uint256",
                    "name": "tokenId",
                    "type": "uint256"
                }
            ],
            "name": "safeTransferFrom",
            "outputs": [],
            "stateMutability": "nonpayable",
            "type": "function"
        },
        {
            "inputs": [
                {
                    "internalType": "address",
                    "name": "from",
                    "type": "address"
                },
                {
                    "internalType": "address",
                    "name": "to",
                    "type": "address"
                },
                {
                    "internalType": "uint256",
                    "name": "tokenId",
                    "type": "uint256"
                },
                {
                    "internalType": "bytes",
                    "name": "_data",
                    "type": "bytes"
                }
            ],
            "name": "safeTransferFrom",
            "outputs": [],
            "stateMutability": "nonpayable",
            "type": "function"
        },
        {
            "inputs": [
                {
                    "internalType": "address",
                    "name": "operator",
                    "type": "address"
                },
                {
                    "internalType": "bool",
                    "name": "approved",
                    "type": "bool"
                }
            ],
            "name": "setApprovalForAll",
            "outputs": [],
            "stateMutability": "nonpayable",
            "type": "function"
        },
        {
            "inputs": [
                {
                    "internalType": "bool",
                    "name": "_enabled",
                    "type": "bool"
                }
            ],
            "name": "setMintEnabled",
            "outputs": [],
            "stateMutability": "nonpayable",
            "type": "function"
        },
        {
            "inputs": [
                {
                    "internalType": "bytes4",
                    "name": "interfaceId",
                    "type": "bytes4"
                }
            ],
            "name": "supportsInterface",
            "outputs": [
                {
                    "internalType": "bool",
                    "name": "",
                    "type": "bool"
                }
            ],
            "stateMutability": "view",
            "type": "function"
        },
        {
            "inputs": [],
            "name": "symbol",
            "outputs": [
                {
                    "internalType": "string",
                    "name": "",
                    "type": "string"
                }
            ],
            "stateMutability": "view",
            "type": "function"
        },
        {
            "inputs": [
                {
                    "internalType": "uint256",
                    "name": "index",
                    "type": "uint256"
                }
            ],
            "name": "tokenByIndex",
            "outputs": [
                {
                    "internalType": "uint256",
                    "name": "",
                    "type": "uint256"
                }
            ],
            "stateMutability": "view",
            "type": "function"
        },
        {
            "inputs": [
                {
                    "internalType": "uint256",
                    "name": "",
                    "type": "uint256"
                }
            ],
            "name": "tokenMetadataIPFSHashes",
            "outputs": [
                {
                    "internalType": "string",
                    "name": "",
                    "type": "string"
                }
            ],
            "stateMutability": "view",
            "type": "function"
        },
        {
            "inputs": [
                {
                    "internalType": "address",
                    "name": "owner",
                    "type": "address"
                },
                {
                    "internalType": "uint256",
                    "name": "index",
                    "type": "uint256"
                }
            ],
            "name": "tokenOfOwnerByIndex",
            "outputs": [
                {
                    "internalType": "uint256",
                    "name": "",
                    "type": "uint256"
                }
            ],
            "stateMutability": "view",
            "type": "function"
        },
        {
            "inputs": [
                {
                    "internalType": "uint256",
                    "name": "_tokenId",
                    "type": "uint256"
                }
            ],
            "name": "tokenURI",
            "outputs": [
                {
                    "internalType": "string",
                    "name": "",
                    "type": "string"
                }
            ],
            "stateMutability": "view",
            "type": "function"
        },
        {
            "inputs": [],
            "name": "totalMinted",
            "outputs": [
                {
                    "internalType": "uint256",
                    "name": "",
                    "type": "uint256"
                }
            ],
            "stateMutability": "view",
            "type": "function"
        },
        {
            "inputs": [],
            "name": "totalSupply",
            "outputs": [
                {
                    "internalType": "uint256",
                    "name": "",
                    "type": "uint256"
                }
            ],
            "stateMutability": "view",
            "type": "function"
        },
        {
            "inputs": [
                {
                    "internalType": "address",
                    "name": "from",
                    "type": "address"
                },
                {
                    "internalType": "address",
                    "name": "to",
                    "type": "address"
                },
                {
                    "internalType": "uint256",
                    "name": "tokenId",
                    "type": "uint256"
                }
            ],
            "name": "transferFrom",
            "outputs": [],
            "stateMutability": "nonpayable",
            "type": "function"
        },
        {
            "inputs": [
                {
                    "internalType": "address",
                    "name": "newOwner",
                    "type": "address"
                }
            ],
            "name": "transferOwnership",
            "outputs": [],
            "stateMutability": "nonpayable",
            "type": "function"
        },
        {
            "inputs": [
                {
                    "internalType": "uint256",
                    "name": "_tokenId",
                    "type": "uint256"
                },
                {
                    "internalType": "string",
                    "name": "_tokenMetadataIPFSHash",
                    "type": "string"
                }
            ],
            "name": "updateMetadataIPFSHash",
            "outputs": [],
            "stateMutability": "nonpayable",
            "type": "function"
        }
    ],
    "bytecode": "0x60806040526040518060400160405280601981526020017f68747470733a2f2f63662d697066732e636f6d2f697066732f00000000000000815250600c90805190602001906200005192919062000259565b506000600d60006101000a81548160ff0219169083151502179055506000600e553480156200007f57600080fd5b5060405162004a1338038062004a138339818101604052810190620000a5919062000320565b6040518060400160405280600981526020017f4d657461437261667400000000000000000000000000000000000000000000008152506040518060400160405280600981526020017f4d6574614372616674000000000000000000000000000000000000000000000081525081600090805190602001906200012992919062000259565b5080600190805190602001906200014292919062000259565b50505062000165620001596200018b60201b60201c565b6200019360201b60201c565b6001600b8190555082600f819055508160108190555080601281905550505050620003ff565b600033905090565b6000600a60009054906101000a900473ffffffffffffffffffffffffffffffffffffffff16905081600a60006101000a81548173ffffffffffffffffffffffffffffffffffffffff021916908373ffffffffffffffffffffffffffffffffffffffff1602179055508173ffffffffffffffffffffffffffffffffffffffff168173ffffffffffffffffffffffffffffffffffffffff167f8be0079c531659141344cd1fd0a4f28419497f9722a3daafe3b4186f6b6457e060405160405180910390a35050565b828054620002679062000380565b90600052602060002090601f0160209004810192826200028b5760008555620002d7565b82601f10620002a657805160ff1916838001178555620002d7565b82800160010185558215620002d7579182015b82811115620002d6578251825591602001919060010190620002b9565b5b509050620002e69190620002ea565b5090565b5b8082111562000305576000816000905550600101620002eb565b5090565b6000815190506200031a81620003e5565b92915050565b6000806000606084860312156200033657600080fd5b6000620003468682870162000309565b9350506020620003598682870162000309565b92505060406200036c8682870162000309565b9150509250925092565b6000819050919050565b600060028204905060018216806200039957607f821691505b60208210811415620003b057620003af620003b6565b5b50919050565b7f4e487b7100000000000000000000000000000000000000000000000000000000600052602260045260246000fd5b620003f08162000376565b8114620003fc57600080fd5b50565b614604806200040f6000396000f3fe608060405234801561001057600080fd5b50600436106101cf5760003560e01c80638da5cb5b11610104578063c398c2ad116100a2578063e0d4ea3711610071578063e0d4ea371461052e578063e985e9c51461055e578063f2fde38b1461058e578063f46a04eb146105aa576101cf565b8063c398c2ad14610494578063c87b56dd146104c4578063ceac6506146104f4578063d123973014610510576101cf565b8063a22cb465116100de578063a22cb46514610420578063a2309ff81461043c578063af5710371461045a578063b88d4fde14610478576101cf565b80638da5cb5b146103c857806390454a04146103e657806395d89b4114610402576101cf565b8063411e6b1d116101715780635e6ffac71161014b5780635e6ffac7146103405780636352211e1461035e57806370a082311461038e578063715018a6146103be576101cf565b8063411e6b1d146102d857806342842e0e146102f45780634f6ccce714610310576101cf565b8063095ea7b3116101ad578063095ea7b31461025257806318160ddd1461026e57806323b872dd1461028c5780632f745c59146102a8576101cf565b806301ffc9a7146101d457806306fdde0314610204578063081812fc14610222575b600080fd5b6101ee60048036038101906101e99190612ed2565b6105c6565b6040516101fb919061363d565b60405180910390f35b61020c610640565b6040516102199190613673565b60405180910390f35b61023c60048036038101906102379190612fcf565b6106d2565b60405161024991906135d6565b60405180910390f35b61026c60048036038101906102679190612e6d565b610757565b005b61027661086f565b6040516102839190613a35565b60405180910390f35b6102a660048036038101906102a19190612d67565b61087c565b005b6102c260048036038101906102bd9190612e6d565b6108dc565b6040516102cf9190613a35565b60405180910390f35b6102f260048036038101906102ed9190612f8e565b610981565b005b61030e60048036038101906103099190612d67565b610e63565b005b61032a60048036038101906103259190612fcf565b610e83565b6040516103379190613a35565b60405180910390f35b610348610f1a565b6040516103559190613673565b60405180910390f35b61037860048036038101906103739190612fcf565b610fa8565b60405161038591906135d6565b60405180910390f35b6103a860048036038101906103a39190612d02565b61105a565b6040516103b59190613a35565b60405180910390f35b6103c6611112565b005b6103d061119a565b6040516103dd91906135d6565b60405180910390f35b61040060048036038101906103fb9190612f4d565b6111c4565b005b61040a61125a565b6040516104179190613673565b60405180910390f35b61043a60048036038101906104359190612e31565b6112ec565b005b610444611302565b6040516104519190613a35565b60405180910390f35b610462611308565b60405161046f9190613a35565b60405180910390f35b610492600480360381019061048d9190612db6565b61130e565b005b6104ae60048036038101906104a99190612fcf565b611370565b6040516104bb9190613673565b60405180910390f35b6104de60048036038101906104d99190612fcf565b611410565b6040516104eb9190613673565b60405180910390f35b61050e60048036038101906105099190612ff8565b611496565b005b61051861160d565b604051610525919061363d565b60405180910390f35b61054860048036038101906105439190612fcf565b611620565b6040516105559190613658565b60405180910390f35b61057860048036038101906105739190612d2b565b611711565b604051610585919061363d565b60405180910390f35b6105a860048036038101906105a39190612d02565b6117a5565b005b6105c460048036038101906105bf9190612ea9565b61189d565b005b60007f780e9d63000000000000000000000000000000000000000000000000000000007bffffffffffffffffffffffffffffffffffffffffffffffffffffffff1916827bffffffffffffffffffffffffffffffffffffffffffffffffffffffff19161480610639575061063882611936565b5b9050919050565b60606000805461064f90613ce1565b80601f016020809104026020016040519081016040528092919081815260200182805461067b90613ce1565b80156106c85780601f1061069d576101008083540402835291602001916106c8565b820191906000526020600020905b8154815290600101906020018083116106ab57829003601f168201915b5050505050905090565b60006106dd82611a18565b61071c576040517f08c379a0000000000000000000000000000000000000000000000000000000008152600401610713906138d5565b60405180910390fd5b6004600083815260200190815260200160002060009054906101000a900473ffffffffffffffffffffffffffffffffffffffff169050919050565b600061076282610fa8565b90508073ffffffffffffffffffffffffffffffffffffffff168373ffffffffffffffffffffffffffffffffffffffff1614156107d3576040517f08c379a00000000000000000000000000000000000000000000000000000000081526004016107ca90613935565b60405180910390fd5b8073ffffffffffffffffffffffffffffffffffffffff166107f2611a84565b73ffffffffffffffffffffffffffffffffffffffff16148061082157506108208161081b611a84565b611711565b5b610860576040517f08c379a000000000000000000000000000000000000000000000000000000000815260040161085790613855565b60405180910390fd5b61086a8383611a8c565b505050565b6000600880549050905090565b61088d610887611a84565b82611b45565b6108cc576040517f08c379a00000000000000000000000000000000000000000000000000000000081526004016108c390613995565b60405180910390fd5b6108d7838383611c23565b505050565b60006108e78361105a565b8210610928576040517f08c379a000000000000000000000000000000000000000000000000000000000815260040161091f906136b5565b60405180910390fd5b600660008473ffffffffffffffffffffffffffffffffffffffff1673ffffffffffffffffffffffffffffffffffffffff168152602001908152602001600020600083815260200190815260200160002054905092915050565b6002600b5414156109c7576040517f08c379a00000000000000000000000000000000000000000000000000000000081526004016109be90613a15565b60405180910390fd5b6002600b81905550600081600001351180156109e95750600f54816000013511155b610a28576040517f08c379a0000000000000000000000000000000000000000000000000000000008152600401610a1f906139f5565b60405180910390fd5b600d60009054906101000a900460ff16610a77576040517f08c379a0000000000000000000000000000000000000000000000000000000008152600401610a6e90613695565b60405180910390fd5b600f54600e5410610abd576040517f08c379a0000000000000000000000000000000000000000000000000000000008152600401610ab490613795565b60405180910390fd5b6000818060400190610acf9190613a50565b905011610b11576040517f08c379a0000000000000000000000000000000000000000000000000000000008152600401610b0890613735565b60405180910390fd5b610b1961119a565b73ffffffffffffffffffffffffffffffffffffffff16610b37611a84565b73ffffffffffffffffffffffffffffffffffffffff1614610c535760125460136000610b61611a84565b73ffffffffffffffffffffffffffffffffffffffff1673ffffffffffffffffffffffffffffffffffffffff16815260200190815260200160002060009054906101000a900461ffff1661ffff1610610bee576040517f08c379a0000000000000000000000000000000000000000000000000000000008152600401610be5906139d5565b60405180910390fd5b600f54601154601054610c019190613bdc565b600e54610c0e9190613b86565b10610c4e576040517f08c379a0000000000000000000000000000000000000000000000000000000008152600401610c4590613955565b60405180910390fd5b610c9a565b60105460115410610c99576040517f08c379a0000000000000000000000000000000000000000000000000000000008152600401610c9090613975565b60405180910390fd5b5b808060400190610caa9190613a50565b60156000846000013581526020019081526020016000209190610cce929190612a26565b5080600001356016828060400190610ce69190613a50565b604051610cf4929190613599565b908152602001604051809103902081905550806020016020810190610d199190612f24565b601460008360000135815260200190815260200160002060006101000a81548163ffffffff021916908360030b63ffffffff16021790555060136000610d5d611a84565b73ffffffffffffffffffffffffffffffffffffffff1673ffffffffffffffffffffffffffffffffffffffff168152602001908152602001600020600081819054906101000a900461ffff1680929190610db590613d44565b91906101000a81548161ffff021916908361ffff16021790555050600e6000815480929190610de390613d6f565b9190505550610df061119a565b73ffffffffffffffffffffffffffffffffffffffff16610e0e611a84565b73ffffffffffffffffffffffffffffffffffffffff161415610e435760116000815480929190610e3d90613d6f565b91905055505b610e58610e4e611a84565b8260000135611e8a565b6001600b8190555050565b610e7e8383836040518060200160405280600081525061130e565b505050565b6000610e8d61086f565b8210610ece576040517f08c379a0000000000000000000000000000000000000000000000000000000008152600401610ec5906139b5565b60405180910390fd5b60088281548110610f08577f4e487b7100000000000000000000000000000000000000000000000000000000600052603260045260246000fd5b90600052602060002001549050919050565b600c8054610f2790613ce1565b80601f0160208091040260200160405190810160405280929190818152602001828054610f5390613ce1565b8015610fa05780601f10610f7557610100808354040283529160200191610fa0565b820191906000526020600020905b815481529060010190602001808311610f8357829003601f168201915b505050505081565b6000806002600084815260200190815260200160002060009054906101000a900473ffffffffffffffffffffffffffffffffffffffff169050600073ffffffffffffffffffffffffffffffffffffffff168173ffffffffffffffffffffffffffffffffffffffff161415611051576040517f08c379a000000000000000000000000000000000000000000000000000000000815260040161104890613895565b60405180910390fd5b80915050919050565b60008073ffffffffffffffffffffffffffffffffffffffff168273ffffffffffffffffffffffffffffffffffffffff1614156110cb576040517f08c379a00000000000000000000000000000000000000000000000000000000081526004016110c290613875565b60405180910390fd5b600360008373ffffffffffffffffffffffffffffffffffffffff1673ffffffffffffffffffffffffffffffffffffffff168152602001908152602001600020549050919050565b61111a611a84565b73ffffffffffffffffffffffffffffffffffffffff1661113861119a565b73ffffffffffffffffffffffffffffffffffffffff161461118e576040517f08c379a0000000000000000000000000000000000000000000000000000000008152600401611185906138f5565b60405180910390fd5b6111986000611ea8565b565b6000600a60009054906101000a900473ffffffffffffffffffffffffffffffffffffffff16905090565b6111cc611a84565b73ffffffffffffffffffffffffffffffffffffffff166111ea61119a565b73ffffffffffffffffffffffffffffffffffffffff1614611240576040517f08c379a0000000000000000000000000000000000000000000000000000000008152600401611237906138f5565b60405180910390fd5b80600c9080519060200190611256929190612aac565b5050565b60606001805461126990613ce1565b80601f016020809104026020016040519081016040528092919081815260200182805461129590613ce1565b80156112e25780601f106112b7576101008083540402835291602001916112e2565b820191906000526020600020905b8154815290600101906020018083116112c557829003601f168201915b5050505050905090565b6112fe6112f7611a84565b8383611f6e565b5050565b600e5481565b600f5481565b61131f611319611a84565b83611b45565b61135e576040517f08c379a000000000000000000000000000000000000000000000000000000000815260040161135590613995565b60405180910390fd5b61136a848484846120db565b50505050565b6015602052806000526040600020600091509050805461138f90613ce1565b80601f01602080910402602001604051908101604052809291908181526020018280546113bb90613ce1565b80156114085780601f106113dd57610100808354040283529160200191611408565b820191906000526020600020905b8154815290600101906020018083116113eb57829003601f168201915b505050505081565b606061141b82611a18565b61145a576040517f08c379a000000000000000000000000000000000000000000000000000000000815260040161145190613915565b60405180910390fd5b600c601560008481526020019081526020016000206040516020016114809291906135b2565b6040516020818303038152906040529050919050565b826114a081611a18565b6114df576040517f08c379a00000000000000000000000000000000000000000000000000000000081526004016114d6906136d5565b60405180910390fd5b6114e884610fa8565b73ffffffffffffffffffffffffffffffffffffffff16611506611a84565b73ffffffffffffffffffffffffffffffffffffffff161461155c576040517f08c379a000000000000000000000000000000000000000000000000000000000815260040161155390613775565b60405180910390fd5b600060168484604051611570929190613599565b908152602001604051809103902054146115bf576040517f08c379a00000000000000000000000000000000000000000000000000000000081526004016115b6906137d5565b60405180910390fd5b82826015600087815260200190815260200160002091906115e1929190612a26565b5083601684846040516115f5929190613599565b90815260200160405180910390208190555050505050565b600d60009054906101000a900460ff1681565b60008161162c81611a18565b61166b576040517f08c379a0000000000000000000000000000000000000000000000000000000008152600401611662906136d5565b60405180910390fd5b61167483610fa8565b73ffffffffffffffffffffffffffffffffffffffff16611692611a84565b73ffffffffffffffffffffffffffffffffffffffff16146116e8576040517f08c379a00000000000000000000000000000000000000000000000000000000081526004016116df90613775565b60405180910390fd5b6014600084815260200190815260200160002060009054906101000a900460030b915050919050565b6000600560008473ffffffffffffffffffffffffffffffffffffffff1673ffffffffffffffffffffffffffffffffffffffff16815260200190815260200160002060008373ffffffffffffffffffffffffffffffffffffffff1673ffffffffffffffffffffffffffffffffffffffff16815260200190815260200160002060009054906101000a900460ff16905092915050565b6117ad611a84565b73ffffffffffffffffffffffffffffffffffffffff166117cb61119a565b73ffffffffffffffffffffffffffffffffffffffff1614611821576040517f08c379a0000000000000000000000000000000000000000000000000000000008152600401611818906138f5565b60405180910390fd5b600073ffffffffffffffffffffffffffffffffffffffff168173ffffffffffffffffffffffffffffffffffffffff161415611891576040517f08c379a000000000000000000000000000000000000000000000000000000000815260040161188890613715565b60405180910390fd5b61189a81611ea8565b50565b6118a5611a84565b73ffffffffffffffffffffffffffffffffffffffff166118c361119a565b73ffffffffffffffffffffffffffffffffffffffff1614611919576040517f08c379a0000000000000000000000000000000000000000000000000000000008152600401611910906138f5565b60405180910390fd5b80600d60006101000a81548160ff02191690831515021790555050565b60007f80ac58cd000000000000000000000000000000000000000000000000000000007bffffffffffffffffffffffffffffffffffffffffffffffffffffffff1916827bffffffffffffffffffffffffffffffffffffffffffffffffffffffff19161480611a0157507f5b5e139f000000000000000000000000000000000000000000000000000000007bffffffffffffffffffffffffffffffffffffffffffffffffffffffff1916827bffffffffffffffffffffffffffffffffffffffffffffffffffffffff1916145b80611a115750611a1082612137565b5b9050919050565b60008073ffffffffffffffffffffffffffffffffffffffff166002600084815260200190815260200160002060009054906101000a900473ffffffffffffffffffffffffffffffffffffffff1673ffffffffffffffffffffffffffffffffffffffff1614159050919050565b600033905090565b816004600083815260200190815260200160002060006101000a81548173ffffffffffffffffffffffffffffffffffffffff021916908373ffffffffffffffffffffffffffffffffffffffff160217905550808273ffffffffffffffffffffffffffffffffffffffff16611aff83610fa8565b73ffffffffffffffffffffffffffffffffffffffff167f8c5be1e5ebec7d5bd14f71427d1e84f3dd0314c0f7b2291e5b200ac8c7c3b92560405160405180910390a45050565b6000611b5082611a18565b611b8f576040517f08c379a0000000000000000000000000000000000000000000000000000000008152600401611b8690613835565b60405180910390fd5b6000611b9a83610fa8565b90508073ffffffffffffffffffffffffffffffffffffffff168473ffffffffffffffffffffffffffffffffffffffff161480611c0957508373ffffffffffffffffffffffffffffffffffffffff16611bf1846106d2565b73ffffffffffffffffffffffffffffffffffffffff16145b80611c1a5750611c198185611711565b5b91505092915050565b8273ffffffffffffffffffffffffffffffffffffffff16611c4382610fa8565b73ffffffffffffffffffffffffffffffffffffffff1614611c99576040517f08c379a0000000000000000000000000000000000000000000000000000000008152600401611c9090613755565b60405180910390fd5b600073ffffffffffffffffffffffffffffffffffffffff168273ffffffffffffffffffffffffffffffffffffffff161415611d09576040517f08c379a0000000000000000000000000000000000000000000000000000000008152600401611d00906137f5565b60405180910390fd5b611d148383836121a1565b611d1f600082611a8c565b6001600360008573ffffffffffffffffffffffffffffffffffffffff1673ffffffffffffffffffffffffffffffffffffffff1681526020019081526020016000206000828254611d6f9190613bdc565b925050819055506001600360008473ffffffffffffffffffffffffffffffffffffffff1673ffffffffffffffffffffffffffffffffffffffff1681526020019081526020016000206000828254611dc69190613b86565b92505081905550816002600083815260200190815260200160002060006101000a81548173ffffffffffffffffffffffffffffffffffffffff021916908373ffffffffffffffffffffffffffffffffffffffff160217905550808273ffffffffffffffffffffffffffffffffffffffff168473ffffffffffffffffffffffffffffffffffffffff167fddf252ad1be2c89b69c2b068fc378daa952ba7f163c4a11628f55a4df523b3ef60405160405180910390a4611e858383836122b5565b505050565b611ea48282604051806020016040528060008152506122ba565b5050565b6000600a60009054906101000a900473ffffffffffffffffffffffffffffffffffffffff16905081600a60006101000a81548173ffffffffffffffffffffffffffffffffffffffff021916908373ffffffffffffffffffffffffffffffffffffffff1602179055508173ffffffffffffffffffffffffffffffffffffffff168173ffffffffffffffffffffffffffffffffffffffff167f8be0079c531659141344cd1fd0a4f28419497f9722a3daafe3b4186f6b6457e060405160405180910390a35050565b8173ffffffffffffffffffffffffffffffffffffffff168373ffffffffffffffffffffffffffffffffffffffff161415611fdd576040517f08c379a0000000000000000000000000000000000000000000000000000000008152600401611fd490613815565b60405180910390fd5b80600560008573ffffffffffffffffffffffffffffffffffffffff1673ffffffffffffffffffffffffffffffffffffffff16815260200190815260200160002060008473ffffffffffffffffffffffffffffffffffffffff1673ffffffffffffffffffffffffffffffffffffffff16815260200190815260200160002060006101000a81548160ff0219169083151502179055508173ffffffffffffffffffffffffffffffffffffffff168373ffffffffffffffffffffffffffffffffffffffff167f17307eab39ab6107e8899845ad3d59bd9653f200f220920489ca2b5937696c31836040516120ce919061363d565b60405180910390a3505050565b6120e6848484611c23565b6120f284848484612315565b612131576040517f08c379a0000000000000000000000000000000000000000000000000000000008152600401612128906136f5565b60405180910390fd5b50505050565b60007f01ffc9a7000000000000000000000000000000000000000000000000000000007bffffffffffffffffffffffffffffffffffffffffffffffffffffffff1916827bffffffffffffffffffffffffffffffffffffffffffffffffffffffff1916149050919050565b6121ac8383836124ac565b600073ffffffffffffffffffffffffffffffffffffffff168373ffffffffffffffffffffffffffffffffffffffff1614156121ef576121ea816124b1565b61222e565b8173ffffffffffffffffffffffffffffffffffffffff168373ffffffffffffffffffffffffffffffffffffffff161461222d5761222c83826124fa565b5b5b600073ffffffffffffffffffffffffffffffffffffffff168273ffffffffffffffffffffffffffffffffffffffff1614156122715761226c81612667565b6122b0565b8273ffffffffffffffffffffffffffffffffffffffff168273ffffffffffffffffffffffffffffffffffffffff16146122af576122ae82826127aa565b5b5b505050565b505050565b6122c48383612829565b6122d16000848484612315565b612310576040517f08c379a0000000000000000000000000000000000000000000000000000000008152600401612307906136f5565b60405180910390fd5b505050565b60006123368473ffffffffffffffffffffffffffffffffffffffff16612a03565b1561249f578373ffffffffffffffffffffffffffffffffffffffff1663150b7a0261235f611a84565b8786866040518563ffffffff1660e01b815260040161238194939291906135f1565b602060405180830381600087803b15801561239b57600080fd5b505af19250505080156123cc57506040513d601f19601f820116820180604052508101906123c99190612efb565b60015b61244f573d80600081146123fc576040519150601f19603f3d011682016040523d82523d6000602084013e612401565b606091505b50600081511415612447576040517f08c379a000000000000000000000000000000000000000000000000000000000815260040161243e906136f5565b60405180910390fd5b805181602001fd5b63150b7a0260e01b7bffffffffffffffffffffffffffffffffffffffffffffffffffffffff1916817bffffffffffffffffffffffffffffffffffffffffffffffffffffffff1916149150506124a4565b600190505b949350505050565b505050565b6008805490506009600083815260200190815260200160002081905550600881908060018154018082558091505060019003906000526020600020016000909190919091505550565b600060016125078461105a565b6125119190613bdc565b90506000600760008481526020019081526020016000205490508181146125f6576000600660008673ffffffffffffffffffffffffffffffffffffffff1673ffffffffffffffffffffffffffffffffffffffff168152602001908152602001600020600084815260200190815260200160002054905080600660008773ffffffffffffffffffffffffffffffffffffffff1673ffffffffffffffffffffffffffffffffffffffff168152602001908152602001600020600084815260200190815260200160002081905550816007600083815260200190815260200160002081905550505b6007600084815260200190815260200160002060009055600660008573ffffffffffffffffffffffffffffffffffffffff1673ffffffffffffffffffffffffffffffffffffffff16815260200190815260200160002060008381526020019081526020016000206000905550505050565b6000600160088054905061267b9190613bdc565b90506000600960008481526020019081526020016000205490506000600883815481106126d1577f4e487b7100000000000000000000000000000000000000000000000000000000600052603260045260246000fd5b906000526020600020015490508060088381548110612719577f4e487b7100000000000000000000000000000000000000000000000000000000600052603260045260246000fd5b90600052602060002001819055508160096000838152602001908152602001600020819055506009600085815260200190815260200160002060009055600880548061278e577f4e487b7100000000000000000000000000000000000000000000000000000000600052603160045260246000fd5b6001900381819060005260206000200160009055905550505050565b60006127b58361105a565b905081600660008573ffffffffffffffffffffffffffffffffffffffff1673ffffffffffffffffffffffffffffffffffffffff168152602001908152602001600020600083815260200190815260200160002081905550806007600084815260200190815260200160002081905550505050565b600073ffffffffffffffffffffffffffffffffffffffff168273ffffffffffffffffffffffffffffffffffffffff161415612899576040517f08c379a0000000000000000000000000000000000000000000000000000000008152600401612890906138b5565b60405180910390fd5b6128a281611a18565b156128e2576040517f08c379a00000000000000000000000000000000000000000000000000000000081526004016128d9906137b5565b60405180910390fd5b6128ee600083836121a1565b6001600360008473ffffffffffffffffffffffffffffffffffffffff1673ffffffffffffffffffffffffffffffffffffffff168152602001908152602001600020600082825461293e9190613b86565b92505081905550816002600083815260200190815260200160002060006101000a81548173ffffffffffffffffffffffffffffffffffffffff021916908373ffffffffffffffffffffffffffffffffffffffff160217905550808273ffffffffffffffffffffffffffffffffffffffff16600073ffffffffffffffffffffffffffffffffffffffff167fddf252ad1be2c89b69c2b068fc378daa952ba7f163c4a11628f55a4df523b3ef60405160405180910390a46129ff600083836122b5565b5050565b6000808273ffffffffffffffffffffffffffffffffffffffff163b119050919050565b828054612a3290613ce1565b90600052602060002090601f016020900481019282612a545760008555612a9b565b82601f10612a6d57803560ff1916838001178555612a9b565b82800160010185558215612a9b579182015b82811115612a9a578235825591602001919060010190612a7f565b5b509050612aa89190612b32565b5090565b828054612ab890613ce1565b90600052602060002090601f016020900481019282612ada5760008555612b21565b82601f10612af357805160ff1916838001178555612b21565b82800160010185558215612b21579182015b82811115612b20578251825591602001919060010190612b05565b5b509050612b2e9190612b32565b5090565b5b80821115612b4b576000816000905550600101612b33565b5090565b6000612b62612b5d84613acc565b613aa7565b905082815260208101848484011115612b7a57600080fd5b612b85848285613c9f565b509392505050565b6000612ba0612b9b84613afd565b613aa7565b905082815260208101848484011115612bb857600080fd5b612bc3848285613c9f565b509392505050565b600081359050612bda8161455b565b92915050565b600081359050612bef81614572565b92915050565b600081359050612c0481614589565b92915050565b600081519050612c1981614589565b92915050565b600082601f830112612c3057600080fd5b8135612c40848260208601612b4f565b91505092915050565b600081359050612c58816145a0565b92915050565b60008083601f840112612c7057600080fd5b8235905067ffffffffffffffff811115612c8957600080fd5b602083019150836001820283011115612ca157600080fd5b9250929050565b600082601f830112612cb957600080fd5b8135612cc9848260208601612b8d565b91505092915050565b600060608284031215612ce457600080fd5b81905092915050565b600081359050612cfc816145b7565b92915050565b600060208284031215612d1457600080fd5b6000612d2284828501612bcb565b91505092915050565b60008060408385031215612d3e57600080fd5b6000612d4c85828601612bcb565b9250506020612d5d85828601612bcb565b9150509250929050565b600080600060608486031215612d7c57600080fd5b6000612d8a86828701612bcb565b9350506020612d9b86828701612bcb565b9250506040612dac86828701612ced565b9150509250925092565b60008060008060808587031215612dcc57600080fd5b6000612dda87828801612bcb565b9450506020612deb87828801612bcb565b9350506040612dfc87828801612ced565b925050606085013567ffffffffffffffff811115612e1957600080fd5b612e2587828801612c1f565b91505092959194509250565b60008060408385031215612e4457600080fd5b6000612e5285828601612bcb565b9250506020612e6385828601612be0565b9150509250929050565b60008060408385031215612e8057600080fd5b6000612e8e85828601612bcb565b9250506020612e9f85828601612ced565b9150509250929050565b600060208284031215612ebb57600080fd5b6000612ec984828501612be0565b91505092915050565b600060208284031215612ee457600080fd5b6000612ef284828501612bf5565b91505092915050565b600060208284031215612f0d57600080fd5b6000612f1b84828501612c0a565b91505092915050565b600060208284031215612f3657600080fd5b6000612f4484828501612c49565b91505092915050565b600060208284031215612f5f57600080fd5b600082013567ffffffffffffffff811115612f7957600080fd5b612f8584828501612ca8565b91505092915050565b600060208284031215612fa057600080fd5b600082013567ffffffffffffffff811115612fba57600080fd5b612fc684828501612cd2565b91505092915050565b600060208284031215612fe157600080fd5b6000612fef84828501612ced565b91505092915050565b60008060006040848603121561300d57600080fd5b600061301b86828701612ced565b935050602084013567ffffffffffffffff81111561303857600080fd5b61304486828701612c5e565b92509250509250925092565b61305981613c10565b82525050565b61306881613c22565b82525050565b600061307982613b43565b6130838185613b59565b9350613093818560208601613cae565b61309c81613e45565b840191505092915050565b6130b081613c5a565b82525050565b60006130c28385613b7b565b93506130cf838584613c9f565b82840190509392505050565b60006130e682613b4e565b6130f08185613b6a565b9350613100818560208601613cae565b61310981613e45565b840191505092915050565b6000815461312181613ce1565b61312b8186613b7b565b9450600182166000811461314657600181146131575761318a565b60ff1983168652818601935061318a565b61316085613b2e565b60005b8381101561318257815481890152600182019150602081019050613163565b838801955050505b50505092915050565b60006131a0601383613b6a565b91506131ab82613e56565b602082019050919050565b60006131c3602b83613b6a565b91506131ce82613e7f565b604082019050919050565b60006131e6601a83613b6a565b91506131f182613ece565b602082019050919050565b6000613209603283613b6a565b915061321482613ef7565b604082019050919050565b600061322c602683613b6a565b915061323782613f46565b604082019050919050565b600061324f600783613b6a565b915061325a82613f95565b602082019050919050565b6000613272602583613b6a565b915061327d82613fbe565b604082019050919050565b6000613295602483613b6a565b91506132a08261400d565b604082019050919050565b60006132b8601183613b6a565b91506132c38261405c565b602082019050919050565b60006132db601c83613b6a565b91506132e682614085565b602082019050919050565b60006132fe602983613b6a565b9150613309826140ae565b604082019050919050565b6000613321602483613b6a565b915061332c826140fd565b604082019050919050565b6000613344601983613b6a565b915061334f8261414c565b602082019050919050565b6000613367602c83613b6a565b915061337282614175565b604082019050919050565b600061338a603883613b6a565b9150613395826141c4565b604082019050919050565b60006133ad602a83613b6a565b91506133b882614213565b604082019050919050565b60006133d0602983613b6a565b91506133db82614262565b604082019050919050565b60006133f3602083613b6a565b91506133fe826142b1565b602082019050919050565b6000613416602c83613b6a565b9150613421826142da565b604082019050919050565b6000613439602083613b6a565b915061344482614329565b602082019050919050565b600061345c602f83613b6a565b915061346782614352565b604082019050919050565b600061347f602183613b6a565b915061348a826143a1565b604082019050919050565b60006134a2601783613b6a565b91506134ad826143f0565b602082019050919050565b60006134c5601083613b6a565b91506134d082614419565b602082019050919050565b60006134e8603183613b6a565b91506134f382614442565b604082019050919050565b600061350b602c83613b6a565b915061351682614491565b604082019050919050565b600061352e601583613b6a565b9150613539826144e0565b602082019050919050565b6000613551601183613b6a565b915061355c82614509565b602082019050919050565b6000613574601f83613b6a565b915061357f82614532565b602082019050919050565b61359381613c95565b82525050565b60006135a68284866130b6565b91508190509392505050565b60006135be8285613114565b91506135ca8284613114565b91508190509392505050565b60006020820190506135eb6000830184613050565b92915050565b60006080820190506136066000830187613050565b6136136020830186613050565b613620604083018561358a565b8181036060830152613632818461306e565b905095945050505050565b6000602082019050613652600083018461305f565b92915050565b600060208201905061366d60008301846130a7565b92915050565b6000602082019050818103600083015261368d81846130db565b905092915050565b600060208201905081810360008301526136ae81613193565b9050919050565b600060208201905081810360008301526136ce816131b6565b9050919050565b600060208201905081810360008301526136ee816131d9565b9050919050565b6000602082019050818103600083015261370e816131fc565b9050919050565b6000602082019050818103600083015261372e8161321f565b9050919050565b6000602082019050818103600083015261374e81613242565b9050919050565b6000602082019050818103600083015261376e81613265565b9050919050565b6000602082019050818103600083015261378e81613288565b9050919050565b600060208201905081810360008301526137ae816132ab565b9050919050565b600060208201905081810360008301526137ce816132ce565b9050919050565b600060208201905081810360008301526137ee816132f1565b9050919050565b6000602082019050818103600083015261380e81613314565b9050919050565b6000602082019050818103600083015261382e81613337565b9050919050565b6000602082019050818103600083015261384e8161335a565b9050919050565b6000602082019050818103600083015261386e8161337d565b9050919050565b6000602082019050818103600083015261388e816133a0565b9050919050565b600060208201905081810360008301526138ae816133c3565b9050919050565b600060208201905081810360008301526138ce816133e6565b9050919050565b600060208201905081810360008301526138ee81613409565b9050919050565b6000602082019050818103600083015261390e8161342c565b9050919050565b6000602082019050818103600083015261392e8161344f565b9050919050565b6000602082019050818103600083015261394e81613472565b9050919050565b6000602082019050818103600083015261396e81613495565b9050919050565b6000602082019050818103600083015261398e816134b8565b9050919050565b600060208201905081810360008301526139ae816134db565b9050919050565b600060208201905081810360008301526139ce816134fe565b9050919050565b600060208201905081810360008301526139ee81613521565b9050919050565b60006020820190508181036000830152613a0e81613544565b9050919050565b60006020820190508181036000830152613a2e81613567565b9050919050565b6000602082019050613a4a600083018461358a565b92915050565b60008083356001602003843603038112613a6957600080fd5b80840192508235915067ffffffffffffffff821115613a8757600080fd5b602083019250600182023603831315613a9f57600080fd5b509250929050565b6000613ab1613ac2565b9050613abd8282613d13565b919050565b6000604051905090565b600067ffffffffffffffff821115613ae757613ae6613e16565b5b613af082613e45565b9050602081019050919050565b600067ffffffffffffffff821115613b1857613b17613e16565b5b613b2182613e45565b9050602081019050919050565b60008190508160005260206000209050919050565b600081519050919050565b600081519050919050565b600082825260208201905092915050565b600082825260208201905092915050565b600081905092915050565b6000613b9182613c95565b9150613b9c83613c95565b9250827fffffffffffffffffffffffffffffffffffffffffffffffffffffffffffffffff03821115613bd157613bd0613db8565b5b828201905092915050565b6000613be782613c95565b9150613bf283613c95565b925082821015613c0557613c04613db8565b5b828203905092915050565b6000613c1b82613c75565b9050919050565b60008115159050919050565b60007fffffffff0000000000000000000000000000000000000000000000000000000082169050919050565b60008160030b9050919050565b600061ffff82169050919050565b600073ffffffffffffffffffffffffffffffffffffffff82169050919050565b6000819050919050565b82818337600083830152505050565b60005b83811015613ccc578082015181840152602081019050613cb1565b83811115613cdb576000848401525b50505050565b60006002820490506001821680613cf957607f821691505b60208210811415613d0d57613d0c613de7565b5b50919050565b613d1c82613e45565b810181811067ffffffffffffffff82111715613d3b57613d3a613e16565b5b80604052505050565b6000613d4f82613c67565b915061ffff821415613d6457613d63613db8565b5b600182019050919050565b6000613d7a82613c95565b91507fffffffffffffffffffffffffffffffffffffffffffffffffffffffffffffffff821415613dad57613dac613db8565b5b600182019050919050565b7f4e487b7100000000000000000000000000000000000000000000000000000000600052601160045260246000fd5b7f4e487b7100000000000000000000000000000000000000000000000000000000600052602260045260246000fd5b7f4e487b7100000000000000000000000000000000000000000000000000000000600052604160045260246000fd5b6000601f19601f8301169050919050565b7f4d696e74696e6720756e617661696c61626c6500000000000000000000000000600082015250565b7f455243373231456e756d657261626c653a206f776e657220696e646578206f7560008201527f74206f6620626f756e6473000000000000000000000000000000000000000000602082015250565b7f5468697320746f6b656e20646f6573206e6f742065786973742e000000000000600082015250565b7f4552433732313a207472616e7366657220746f206e6f6e20455243373231526560008201527f63656976657220696d706c656d656e7465720000000000000000000000000000602082015250565b7f4f776e61626c653a206e6577206f776e657220697320746865207a65726f206160008201527f6464726573730000000000000000000000000000000000000000000000000000602082015250565b7f4e6f206970667300000000000000000000000000000000000000000000000000600082015250565b7f4552433732313a207472616e736665722066726f6d20696e636f72726563742060008201527f6f776e6572000000000000000000000000000000000000000000000000000000602082015250565b7f596f7520617265206e6f7420746865206f776e6572206f66207468697320746f60008201527f6b656e2e00000000000000000000000000000000000000000000000000000000602082015250565b7f416c6c20746f6b656e73206d696e746564000000000000000000000000000000600082015250565b7f4552433732313a20746f6b656e20616c7265616479206d696e74656400000000600082015250565b7f54686973204950465320686173682068617320616c7265616479206265656e2060008201527f61737369676e65642e0000000000000000000000000000000000000000000000602082015250565b7f4552433732313a207472616e7366657220746f20746865207a65726f2061646460008201527f7265737300000000000000000000000000000000000000000000000000000000602082015250565b7f4552433732313a20617070726f766520746f2063616c6c657200000000000000600082015250565b7f4552433732313a206f70657261746f7220717565727920666f72206e6f6e657860008201527f697374656e7420746f6b656e0000000000000000000000000000000000000000602082015250565b7f4552433732313a20617070726f76652063616c6c6572206973206e6f74206f7760008201527f6e6572206e6f7220617070726f76656420666f7220616c6c0000000000000000602082015250565b7f4552433732313a2062616c616e636520717565727920666f7220746865207a6560008201527f726f206164647265737300000000000000000000000000000000000000000000602082015250565b7f4552433732313a206f776e657220717565727920666f72206e6f6e657869737460008201527f656e7420746f6b656e0000000000000000000000000000000000000000000000602082015250565b7f4552433732313a206d696e7420746f20746865207a65726f2061646472657373600082015250565b7f4552433732313a20617070726f76656420717565727920666f72206e6f6e657860008201527f697374656e7420746f6b656e0000000000000000000000000000000000000000602082015250565b7f4f776e61626c653a2063616c6c6572206973206e6f7420746865206f776e6572600082015250565b7f4552433732314d657461646174613a2055524920717565727920666f72206e6f60008201527f6e6578697374656e7420746f6b656e0000000000000000000000000000000000602082015250565b7f4552433732313a20617070726f76616c20746f2063757272656e74206f776e6560008201527f7200000000000000000000000000000000000000000000000000000000000000602082015250565b7f417661696c61626c6520746f6b656e73206d696e746564000000000000000000600082015250565b7f4f776e6572206d696e74206c696d697400000000000000000000000000000000600082015250565b7f4552433732313a207472616e736665722063616c6c6572206973206e6f74206f60008201527f776e6572206e6f7220617070726f766564000000000000000000000000000000602082015250565b7f455243373231456e756d657261626c653a20676c6f62616c20696e646578206f60008201527f7574206f6620626f756e64730000000000000000000000000000000000000000602082015250565b7f596f752063616e6e6f74206d696e74206d6f72652e0000000000000000000000600082015250565b7f496e76616c696420746f6b656e2069642e000000000000000000000000000000600082015250565b7f5265656e7472616e637947756172643a207265656e7472616e742063616c6c00600082015250565b61456481613c10565b811461456f57600080fd5b50565b61457b81613c22565b811461458657600080fd5b50565b61459281613c2e565b811461459d57600080fd5b50565b6145a981613c5a565b81146145b457600080fd5b50565b6145c081613c95565b81146145cb57600080fd5b5056fea264697066735822122096fb857c95738bcea7ca657bf7c0dc6eb7ab9ca1cabd501971ec838f49568bc364736f6c63430008040033",
    "linkReferences": {},
    "deployedLinkReferences": {}
}