{
    "_format": "hh-sol-artifact-1",
    "contractName": "MetaCraft",
    "sourceName": "contracts/MetaCraft.sol",
    "abi": [
        {
            "inputs": [
                {
                    "internalType": "uint256",
                    "name": "_mintSupplyCount",
                    "type": "uint256"
                },
                {
                    "internalType": "uint256",
                    "name": "_ownerMintReserveCount",
                    "type": "uint256"
                },
                {
                    "internalType": "uint256",
                    "name": "_maxMintPerAddress",
                    "type": "uint256"
                }
            ],
            "stateMutability": "nonpayable",
            "type": "constructor"
        },
        {
            "anonymous": false,
            "inputs": [
                {
                    "indexed": true,
                    "internalType": "address",
                    "name": "owner",
                    "type": "address"
                },
                {
                    "indexed": true,
                    "internalType": "address",
                    "name": "approved",
                    "type": "address"
                },
                {
                    "indexed": true,
                    "internalType": "uint256",
                    "name": "tokenId",
                    "type": "uint256"
                }
            ],
            "name": "Approval",
            "type": "event"
        },
        {
            "anonymous": false,
            "inputs": [
                {
                    "indexed": true,
                    "internalType": "address",
                    "name": "owner",
                    "type": "address"
                },
                {
                    "indexed": true,
                    "internalType": "address",
                    "name": "operator",
                    "type": "address"
                },
                {
                    "indexed": false,
                    "internalType": "bool",
                    "name": "approved",
                    "type": "bool"
                }
            ],
            "name": "ApprovalForAll",
            "type": "event"
        },
        {
            "anonymous": false,
            "inputs": [
                {
                    "indexed": true,
                    "internalType": "address",
                    "name": "previousOwner",
                    "type": "address"
                },
                {
                    "indexed": true,
                    "internalType": "address",
                    "name": "newOwner",
                    "type": "address"
                }
            ],
            "name": "OwnershipTransferred",
            "type": "event"
        },
        {
            "anonymous": false,
            "inputs": [
                {
                    "indexed": true,
                    "internalType": "address",
                    "name": "from",
                    "type": "address"
                },
                {
                    "indexed": true,
                    "internalType": "address",
                    "name": "to",
                    "type": "address"
                },
                {
                    "indexed": true,
                    "internalType": "uint256",
                    "name": "tokenId",
                    "type": "uint256"
                }
            ],
            "name": "Transfer",
            "type": "event"
        },
        {
            "inputs": [
                {
                    "internalType": "address",
                    "name": "to",
                    "type": "address"
                },
                {
                    "internalType": "uint256",
                    "name": "tokenId",
                    "type": "uint256"
                }
            ],
            "name": "approve",
            "outputs": [],
            "stateMutability": "nonpayable",
            "type": "function"
        },
        {
            "inputs": [
                {
                    "internalType": "address",
                    "name": "owner",
                    "type": "address"
                }
            ],
            "name": "balanceOf",
            "outputs": [
                {
                    "internalType": "uint256",
                    "name": "",
                    "type": "uint256"
                }
            ],
            "stateMutability": "view",
            "type": "function"
        },
        {
            "inputs": [
                {
                    "internalType": "uint256",
                    "name": "_tokenId",
                    "type": "uint256"
                }
            ],
            "name": "burnLand",
            "outputs": [],
            "stateMutability": "nonpayable",
            "type": "function"
        },
        {
            "inputs": [
                {
                    "internalType": "string",
                    "name": "_ipfsGateway",
                    "type": "string"
                }
            ],
            "name": "emergencySetIPFSGateway",
            "outputs": [],
            "stateMutability": "nonpayable",
            "type": "function"
        },
        {
            "inputs": [
                {
                    "internalType": "uint256",
                    "name": "tokenId",
                    "type": "uint256"
                }
            ],
            "name": "getApproved",
            "outputs": [
                {
                    "internalType": "address",
                    "name": "",
                    "type": "address"
                }
            ],
            "stateMutability": "view",
            "type": "function"
        },
        {
            "inputs": [
                {
                    "internalType": "uint256",
                    "name": "_tokenId",
                    "type": "uint256"
                }
            ],
            "name": "getSeed",
            "outputs": [
                {
                    "internalType": "int32",
                    "name": "",
                    "type": "int32"
                }
            ],
            "stateMutability": "view",
            "type": "function"
        },
        {
            "inputs": [],
            "name": "ipfsGateway",
            "outputs": [
                {
                    "internalType": "string",
                    "name": "",
                    "type": "string"
                }
            ],
            "stateMutability": "view",
            "type": "function"
        },
        {
            "inputs": [
                {
                    "internalType": "address",
                    "name": "owner",
                    "type": "address"
                },
                {
                    "internalType": "address",
                    "name": "operator",
                    "type": "address"
                }
            ],
            "name": "isApprovedForAll",
            "outputs": [
                {
                    "internalType": "bool",
                    "name": "",
                    "type": "bool"
                }
            ],
            "stateMutability": "view",
            "type": "function"
        },
        {
            "inputs": [],
            "name": "mintEnabled",
            "outputs": [
                {
                    "internalType": "bool",
                    "name": "",
                    "type": "bool"
                }
            ],
            "stateMutability": "view",
            "type": "function"
        },
        {
            "inputs": [],
            "name": "mintSupplyCount",
            "outputs": [
                {
                    "internalType": "uint256",
                    "name": "",
                    "type": "uint256"
                }
            ],
            "stateMutability": "view",
            "type": "function"
        },
        {
            "inputs": [
                {
                    "components": [
                        {
                            "internalType": "uint256",
                            "name": "_tokenId",
                            "type": "uint256"
                        },
                        {
                            "internalType": "int32",
                            "name": "_seed",
                            "type": "int32"
                        },
                        {
                            "internalType": "string",
                            "name": "_tokenMetadataIPFSHash",
                            "type": "string"
                        }
                    ],
                    "internalType": "struct MetaCraft.MintData",
                    "name": "_mintData",
                    "type": "tuple"
                }
            ],
            "name": "mintWorld",
            "outputs": [],
            "stateMutability": "nonpayable",
            "type": "function"
        },
        {
            "inputs": [],
            "name": "name",
            "outputs": [
                {
                    "internalType": "string",
                    "name": "",
                    "type": "string"
                }
            ],
            "stateMutability": "view",
            "type": "function"
        },
        {
            "inputs": [],
            "name": "owner",
            "outputs": [
                {
                    "internalType": "address",
                    "name": "",
                    "type": "address"
                }
            ],
            "stateMutability": "view",
            "type": "function"
        },
        {
            "inputs": [
                {
                    "internalType": "uint256",
                    "name": "tokenId",
                    "type": "uint256"
                }
            ],
            "name": "ownerOf",
            "outputs": [
                {
                    "internalType": "address",
                    "name": "",
                    "type": "address"
                }
            ],
            "stateMutability": "view",
            "type": "function"
        },
        {
            "inputs": [],
            "name": "renounceOwnership",
            "outputs": [],
            "stateMutability": "nonpayable",
            "type": "function"
        },
        {
            "inputs": [
                {
                    "internalType": "address",
                    "name": "from",
                    "type": "address"
                },
                {
                    "internalType": "address",
                    "name": "to",
                    "type": "address"
                },
                {
                    "internalType": "uint256",
                    "name": "tokenId",
                    "type": "uint256"
                }
            ],
            "name": "safeTransferFrom",
            "outputs": [],
            "stateMutability": "nonpayable",
            "type": "function"
        },
        {
            "inputs": [
                {
                    "internalType": "address",
                    "name": "from",
                    "type": "address"
                },
                {
                    "internalType": "address",
                    "name": "to",
                    "type": "address"
                },
                {
                    "internalType": "uint256",
                    "name": "tokenId",
                    "type": "uint256"
                },
                {
                    "internalType": "bytes",
                    "name": "_data",
                    "type": "bytes"
                }
            ],
            "name": "safeTransferFrom",
            "outputs": [],
            "stateMutability": "nonpayable",
            "type": "function"
        },
        {
            "inputs": [
                {
                    "internalType": "address",
                    "name": "operator",
                    "type": "address"
                },
                {
                    "internalType": "bool",
                    "name": "approved",
                    "type": "bool"
                }
            ],
            "name": "setApprovalForAll",
            "outputs": [],
            "stateMutability": "nonpayable",
            "type": "function"
        },
        {
            "inputs": [
                {
                    "internalType": "bool",
                    "name": "_enabled",
                    "type": "bool"
                }
            ],
            "name": "setMintEnabled",
            "outputs": [],
            "stateMutability": "nonpayable",
            "type": "function"
        },
        {
            "inputs": [
                {
                    "internalType": "bytes4",
                    "name": "interfaceId",
                    "type": "bytes4"
                }
            ],
            "name": "supportsInterface",
            "outputs": [
                {
                    "internalType": "bool",
                    "name": "",
                    "type": "bool"
                }
            ],
            "stateMutability": "view",
            "type": "function"
        },
        {
            "inputs": [],
            "name": "symbol",
            "outputs": [
                {
                    "internalType": "string",
                    "name": "",
                    "type": "string"
                }
            ],
            "stateMutability": "view",
            "type": "function"
        },
        {
            "inputs": [
                {
                    "internalType": "uint256",
                    "name": "index",
                    "type": "uint256"
                }
            ],
            "name": "tokenByIndex",
            "outputs": [
                {
                    "internalType": "uint256",
                    "name": "",
                    "type": "uint256"
                }
            ],
            "stateMutability": "view",
            "type": "function"
        },
        {
            "inputs": [
                {
                    "internalType": "uint256",
                    "name": "",
                    "type": "uint256"
                }
            ],
            "name": "tokenMetadataIPFSHashes",
            "outputs": [
                {
                    "internalType": "string",
                    "name": "",
                    "type": "string"
                }
            ],
            "stateMutability": "view",
            "type": "function"
        },
        {
            "inputs": [
                {
                    "internalType": "address",
                    "name": "owner",
                    "type": "address"
                },
                {
                    "internalType": "uint256",
                    "name": "index",
                    "type": "uint256"
                }
            ],
            "name": "tokenOfOwnerByIndex",
            "outputs": [
                {
                    "internalType": "uint256",
                    "name": "",
                    "type": "uint256"
                }
            ],
            "stateMutability": "view",
            "type": "function"
        },
        {
            "inputs": [
                {
                    "internalType": "uint256",
                    "name": "_tokenId",
                    "type": "uint256"
                }
            ],
            "name": "tokenURI",
            "outputs": [
                {
                    "internalType": "string",
                    "name": "",
                    "type": "string"
                }
            ],
            "stateMutability": "view",
            "type": "function"
        },
        {
            "inputs": [],
            "name": "totalMinted",
            "outputs": [
                {
                    "internalType": "uint256",
                    "name": "",
                    "type": "uint256"
                }
            ],
            "stateMutability": "view",
            "type": "function"
        },
        {
            "inputs": [],
            "name": "totalSupply",
            "outputs": [
                {
                    "internalType": "uint256",
                    "name": "",
                    "type": "uint256"
                }
            ],
            "stateMutability": "view",
            "type": "function"
        },
        {
            "inputs": [
                {
                    "internalType": "address",
                    "name": "from",
                    "type": "address"
                },
                {
                    "internalType": "address",
                    "name": "to",
                    "type": "address"
                },
                {
                    "internalType": "uint256",
                    "name": "tokenId",
                    "type": "uint256"
                }
            ],
            "name": "transferFrom",
            "outputs": [],
            "stateMutability": "nonpayable",
            "type": "function"
        },
        {
            "inputs": [
                {
                    "internalType": "address",
                    "name": "newOwner",
                    "type": "address"
                }
            ],
            "name": "transferOwnership",
            "outputs": [],
            "stateMutability": "nonpayable",
            "type": "function"
        },
        {
            "inputs": [
                {
                    "internalType": "uint256",
                    "name": "_tokenId",
                    "type": "uint256"
                },
                {
                    "internalType": "string",
                    "name": "_tokenMetadataIPFSHash",
                    "type": "string"
                }
            ],
            "name": "updateMetadataIPFSHash",
            "outputs": [],
            "stateMutability": "nonpayable",
            "type": "function"
        }
    ],
    "bytecode": "0x60806040526040518060400160405280601981526020017f68747470733a2f2f63662d697066732e636f6d2f697066732f00000000000000815250600c90805190602001906200005192919062000259565b506000600d60006101000a81548160ff0219169083151502179055506000600e553480156200007f57600080fd5b5060405162004c2938038062004c298339818101604052810190620000a5919062000320565b6040518060400160405280600981526020017f4d657461437261667400000000000000000000000000000000000000000000008152506040518060400160405280600981526020017f4d6574614372616674000000000000000000000000000000000000000000000081525081600090805190602001906200012992919062000259565b5080600190805190602001906200014292919062000259565b50505062000165620001596200018b60201b60201c565b6200019360201b60201c565b6001600b8190555082600f819055508160108190555080601281905550505050620003ff565b600033905090565b6000600a60009054906101000a900473ffffffffffffffffffffffffffffffffffffffff16905081600a60006101000a81548173ffffffffffffffffffffffffffffffffffffffff021916908373ffffffffffffffffffffffffffffffffffffffff1602179055508173ffffffffffffffffffffffffffffffffffffffff168173ffffffffffffffffffffffffffffffffffffffff167f8be0079c531659141344cd1fd0a4f28419497f9722a3daafe3b4186f6b6457e060405160405180910390a35050565b828054620002679062000380565b90600052602060002090601f0160209004810192826200028b5760008555620002d7565b82601f10620002a657805160ff1916838001178555620002d7565b82800160010185558215620002d7579182015b82811115620002d6578251825591602001919060010190620002b9565b5b509050620002e69190620002ea565b5090565b5b8082111562000305576000816000905550600101620002eb565b5090565b6000815190506200031a81620003e5565b92915050565b6000806000606084860312156200033657600080fd5b6000620003468682870162000309565b9350506020620003598682870162000309565b92505060406200036c8682870162000309565b9150509250925092565b6000819050919050565b600060028204905060018216806200039957607f821691505b60208210811415620003b057620003af620003b6565b5b50919050565b7f4e487b7100000000000000000000000000000000000000000000000000000000600052602260045260246000fd5b620003f08162000376565b8114620003fc57600080fd5b50565b61481a806200040f6000396000f3fe608060405234801561001057600080fd5b50600436106101da5760003560e01c80638da5cb5b11610104578063c398c2ad116100a2578063e0d4ea3711610071578063e0d4ea3714610555578063e985e9c514610585578063f2fde38b146105b5578063f46a04eb146105d1576101da565b8063c398c2ad146104bb578063c87b56dd146104eb578063ceac65061461051b578063d123973014610537576101da565b8063a22cb465116100de578063a22cb46514610447578063a2309ff814610463578063af57103714610481578063b88d4fde1461049f576101da565b80638da5cb5b146103ef57806390454a041461040d57806395d89b4114610429576101da565b8063411e6b1d1161017c5780636352211e1161014b5780636352211e146103695780636613221f1461039957806370a08231146103b5578063715018a6146103e5576101da565b8063411e6b1d146102e357806342842e0e146102ff5780634f6ccce71461031b5780635e6ffac71461034b576101da565b8063095ea7b3116101b8578063095ea7b31461025d57806318160ddd1461027957806323b872dd146102975780632f745c59146102b3576101da565b806301ffc9a7146101df57806306fdde031461020f578063081812fc1461022d575b600080fd5b6101f960048036038101906101f491906130e8565b6105ed565b6040516102069190613853565b60405180910390f35b610217610667565b6040516102249190613889565b60405180910390f35b610247600480360381019061024291906131e5565b6106f9565b60405161025491906137ec565b60405180910390f35b61027760048036038101906102729190613083565b61077e565b005b610281610896565b60405161028e9190613c4b565b60405180910390f35b6102b160048036038101906102ac9190612f7d565b6108a3565b005b6102cd60048036038101906102c89190613083565b610903565b6040516102da9190613c4b565b60405180910390f35b6102fd60048036038101906102f891906131a4565b6109a8565b005b61031960048036038101906103149190612f7d565b610e8a565b005b610335600480360381019061033091906131e5565b610eaa565b6040516103429190613c4b565b60405180910390f35b610353610f41565b6040516103609190613889565b60405180910390f35b610383600480360381019061037e91906131e5565b610fcf565b60405161039091906137ec565b60405180910390f35b6103b360048036038101906103ae91906131e5565b611081565b005b6103cf60048036038101906103ca9190612f18565b611153565b6040516103dc9190613c4b565b60405180910390f35b6103ed61120b565b005b6103f7611293565b60405161040491906137ec565b60405180910390f35b61042760048036038101906104229190613163565b6112bd565b005b610431611353565b60405161043e9190613889565b60405180910390f35b610461600480360381019061045c9190613047565b6113e5565b005b61046b6113fb565b6040516104789190613c4b565b60405180910390f35b610489611401565b6040516104969190613c4b565b60405180910390f35b6104b960048036038101906104b49190612fcc565b611407565b005b6104d560048036038101906104d091906131e5565b611469565b6040516104e29190613889565b60405180910390f35b610505600480360381019061050091906131e5565b611509565b6040516105129190613889565b60405180910390f35b6105356004803603810190610530919061320e565b61158f565b005b61053f611706565b60405161054c9190613853565b60405180910390f35b61056f600480360381019061056a91906131e5565b611719565b60405161057c919061386e565b60405180910390f35b61059f600480360381019061059a9190612f41565b61180a565b6040516105ac9190613853565b60405180910390f35b6105cf60048036038101906105ca9190612f18565b61189e565b005b6105eb60048036038101906105e691906130bf565b611996565b005b60007f780e9d63000000000000000000000000000000000000000000000000000000007bffffffffffffffffffffffffffffffffffffffffffffffffffffffff1916827bffffffffffffffffffffffffffffffffffffffffffffffffffffffff19161480610660575061065f82611a2f565b5b9050919050565b60606000805461067690613ef7565b80601f01602080910402602001604051908101604052809291908181526020018280546106a290613ef7565b80156106ef5780601f106106c4576101008083540402835291602001916106ef565b820191906000526020600020905b8154815290600101906020018083116106d257829003601f168201915b5050505050905090565b600061070482611b11565b610743576040517f08c379a000000000000000000000000000000000000000000000000000000000815260040161073a90613aeb565b60405180910390fd5b6004600083815260200190815260200160002060009054906101000a900473ffffffffffffffffffffffffffffffffffffffff169050919050565b600061078982610fcf565b90508073ffffffffffffffffffffffffffffffffffffffff168373ffffffffffffffffffffffffffffffffffffffff1614156107fa576040517f08c379a00000000000000000000000000000000000000000000000000000000081526004016107f190613b4b565b60405180910390fd5b8073ffffffffffffffffffffffffffffffffffffffff16610819611b7d565b73ffffffffffffffffffffffffffffffffffffffff161480610848575061084781610842611b7d565b61180a565b5b610887576040517f08c379a000000000000000000000000000000000000000000000000000000000815260040161087e90613a6b565b60405180910390fd5b6108918383611b85565b505050565b6000600880549050905090565b6108b46108ae611b7d565b82611c3e565b6108f3576040517f08c379a00000000000000000000000000000000000000000000000000000000081526004016108ea90613bab565b60405180910390fd5b6108fe838383611d1c565b505050565b600061090e83611153565b821061094f576040517f08c379a0000000000000000000000000000000000000000000000000000000008152600401610946906138cb565b60405180910390fd5b600660008473ffffffffffffffffffffffffffffffffffffffff1673ffffffffffffffffffffffffffffffffffffffff168152602001908152602001600020600083815260200190815260200160002054905092915050565b6002600b5414156109ee576040517f08c379a00000000000000000000000000000000000000000000000000000000081526004016109e590613c2b565b60405180910390fd5b6002600b8190555060008160000135118015610a105750600f54816000013511155b610a4f576040517f08c379a0000000000000000000000000000000000000000000000000000000008152600401610a4690613c0b565b60405180910390fd5b600d60009054906101000a900460ff16610a9e576040517f08c379a0000000000000000000000000000000000000000000000000000000008152600401610a95906138ab565b60405180910390fd5b600f54600e5410610ae4576040517f08c379a0000000000000000000000000000000000000000000000000000000008152600401610adb906139ab565b60405180910390fd5b6000818060400190610af69190613c66565b905011610b38576040517f08c379a0000000000000000000000000000000000000000000000000000000008152600401610b2f9061394b565b60405180910390fd5b610b40611293565b73ffffffffffffffffffffffffffffffffffffffff16610b5e611b7d565b73ffffffffffffffffffffffffffffffffffffffff1614610c7a5760125460136000610b88611b7d565b73ffffffffffffffffffffffffffffffffffffffff1673ffffffffffffffffffffffffffffffffffffffff16815260200190815260200160002060009054906101000a900461ffff1661ffff1610610c15576040517f08c379a0000000000000000000000000000000000000000000000000000000008152600401610c0c90613beb565b60405180910390fd5b600f54601154601054610c289190613df2565b600e54610c359190613d9c565b10610c75576040517f08c379a0000000000000000000000000000000000000000000000000000000008152600401610c6c90613b6b565b60405180910390fd5b610cc1565b60105460115410610cc0576040517f08c379a0000000000000000000000000000000000000000000000000000000008152600401610cb790613b8b565b60405180910390fd5b5b808060400190610cd19190613c66565b60156000846000013581526020019081526020016000209190610cf5929190612c3c565b5080600001356016828060400190610d0d9190613c66565b604051610d1b9291906137af565b908152602001604051809103902081905550806020016020810190610d40919061313a565b601460008360000135815260200190815260200160002060006101000a81548163ffffffff021916908360030b63ffffffff16021790555060136000610d84611b7d565b73ffffffffffffffffffffffffffffffffffffffff1673ffffffffffffffffffffffffffffffffffffffff168152602001908152602001600020600081819054906101000a900461ffff1680929190610ddc90613f5a565b91906101000a81548161ffff021916908361ffff16021790555050600e6000815480929190610e0a90613f85565b9190505550610e17611293565b73ffffffffffffffffffffffffffffffffffffffff16610e35611b7d565b73ffffffffffffffffffffffffffffffffffffffff161415610e6a5760116000815480929190610e6490613f85565b91905055505b610e7f610e75611b7d565b8260000135611f83565b6001600b8190555050565b610ea583838360405180602001604052806000815250611407565b505050565b6000610eb4610896565b8210610ef5576040517f08c379a0000000000000000000000000000000000000000000000000000000008152600401610eec90613bcb565b60405180910390fd5b60088281548110610f2f577f4e487b7100000000000000000000000000000000000000000000000000000000600052603260045260246000fd5b90600052602060002001549050919050565b600c8054610f4e90613ef7565b80601f0160208091040260200160405190810160405280929190818152602001828054610f7a90613ef7565b8015610fc75780601f10610f9c57610100808354040283529160200191610fc7565b820191906000526020600020905b815481529060010190602001808311610faa57829003601f168201915b505050505081565b6000806002600084815260200190815260200160002060009054906101000a900473ffffffffffffffffffffffffffffffffffffffff169050600073ffffffffffffffffffffffffffffffffffffffff168173ffffffffffffffffffffffffffffffffffffffff161415611078576040517f08c379a000000000000000000000000000000000000000000000000000000000815260040161106f90613aab565b60405180910390fd5b80915050919050565b8061108b81611b11565b6110ca576040517f08c379a00000000000000000000000000000000000000000000000000000000081526004016110c1906138eb565b60405180910390fd5b6110d2611b7d565b73ffffffffffffffffffffffffffffffffffffffff166110f0611293565b73ffffffffffffffffffffffffffffffffffffffff1614611146576040517f08c379a000000000000000000000000000000000000000000000000000000000815260040161113d90613b0b565b60405180910390fd5b61114f82611fa1565b5050565b60008073ffffffffffffffffffffffffffffffffffffffff168273ffffffffffffffffffffffffffffffffffffffff1614156111c4576040517f08c379a00000000000000000000000000000000000000000000000000000000081526004016111bb90613a8b565b60405180910390fd5b600360008373ffffffffffffffffffffffffffffffffffffffff1673ffffffffffffffffffffffffffffffffffffffff168152602001908152602001600020549050919050565b611213611b7d565b73ffffffffffffffffffffffffffffffffffffffff16611231611293565b73ffffffffffffffffffffffffffffffffffffffff1614611287576040517f08c379a000000000000000000000000000000000000000000000000000000000815260040161127e90613b0b565b60405180910390fd5b61129160006120be565b565b6000600a60009054906101000a900473ffffffffffffffffffffffffffffffffffffffff16905090565b6112c5611b7d565b73ffffffffffffffffffffffffffffffffffffffff166112e3611293565b73ffffffffffffffffffffffffffffffffffffffff1614611339576040517f08c379a000000000000000000000000000000000000000000000000000000000815260040161133090613b0b565b60405180910390fd5b80600c908051906020019061134f929190612cc2565b5050565b60606001805461136290613ef7565b80601f016020809104026020016040519081016040528092919081815260200182805461138e90613ef7565b80156113db5780601f106113b0576101008083540402835291602001916113db565b820191906000526020600020905b8154815290600101906020018083116113be57829003601f168201915b5050505050905090565b6113f76113f0611b7d565b8383612184565b5050565b600e5481565b600f5481565b611418611412611b7d565b83611c3e565b611457576040517f08c379a000000000000000000000000000000000000000000000000000000000815260040161144e90613bab565b60405180910390fd5b611463848484846122f1565b50505050565b6015602052806000526040600020600091509050805461148890613ef7565b80601f01602080910402602001604051908101604052809291908181526020018280546114b490613ef7565b80156115015780601f106114d657610100808354040283529160200191611501565b820191906000526020600020905b8154815290600101906020018083116114e457829003601f168201915b505050505081565b606061151482611b11565b611553576040517f08c379a000000000000000000000000000000000000000000000000000000000815260040161154a90613b2b565b60405180910390fd5b600c601560008481526020019081526020016000206040516020016115799291906137c8565b6040516020818303038152906040529050919050565b8261159981611b11565b6115d8576040517f08c379a00000000000000000000000000000000000000000000000000000000081526004016115cf906138eb565b60405180910390fd5b6115e184610fcf565b73ffffffffffffffffffffffffffffffffffffffff166115ff611b7d565b73ffffffffffffffffffffffffffffffffffffffff1614611655576040517f08c379a000000000000000000000000000000000000000000000000000000000815260040161164c9061398b565b60405180910390fd5b6000601684846040516116699291906137af565b908152602001604051809103902054146116b8576040517f08c379a00000000000000000000000000000000000000000000000000000000081526004016116af906139eb565b60405180910390fd5b82826015600087815260200190815260200160002091906116da929190612c3c565b5083601684846040516116ee9291906137af565b90815260200160405180910390208190555050505050565b600d60009054906101000a900460ff1681565b60008161172581611b11565b611764576040517f08c379a000000000000000000000000000000000000000000000000000000000815260040161175b906138eb565b60405180910390fd5b61176d83610fcf565b73ffffffffffffffffffffffffffffffffffffffff1661178b611b7d565b73ffffffffffffffffffffffffffffffffffffffff16146117e1576040517f08c379a00000000000000000000000000000000000000000000000000000000081526004016117d89061398b565b60405180910390fd5b6014600084815260200190815260200160002060009054906101000a900460030b915050919050565b6000600560008473ffffffffffffffffffffffffffffffffffffffff1673ffffffffffffffffffffffffffffffffffffffff16815260200190815260200160002060008373ffffffffffffffffffffffffffffffffffffffff1673ffffffffffffffffffffffffffffffffffffffff16815260200190815260200160002060009054906101000a900460ff16905092915050565b6118a6611b7d565b73ffffffffffffffffffffffffffffffffffffffff166118c4611293565b73ffffffffffffffffffffffffffffffffffffffff161461191a576040517f08c379a000000000000000000000000000000000000000000000000000000000815260040161191190613b0b565b60405180910390fd5b600073ffffffffffffffffffffffffffffffffffffffff168173ffffffffffffffffffffffffffffffffffffffff16141561198a576040517f08c379a00000000000000000000000000000000000000000000000000000000081526004016119819061392b565b60405180910390fd5b611993816120be565b50565b61199e611b7d565b73ffffffffffffffffffffffffffffffffffffffff166119bc611293565b73ffffffffffffffffffffffffffffffffffffffff1614611a12576040517f08c379a0000000000000000000000000000000000000000000000000000000008152600401611a0990613b0b565b60405180910390fd5b80600d60006101000a81548160ff02191690831515021790555050565b60007f80ac58cd000000000000000000000000000000000000000000000000000000007bffffffffffffffffffffffffffffffffffffffffffffffffffffffff1916827bffffffffffffffffffffffffffffffffffffffffffffffffffffffff19161480611afa57507f5b5e139f000000000000000000000000000000000000000000000000000000007bffffffffffffffffffffffffffffffffffffffffffffffffffffffff1916827bffffffffffffffffffffffffffffffffffffffffffffffffffffffff1916145b80611b0a5750611b098261234d565b5b9050919050565b60008073ffffffffffffffffffffffffffffffffffffffff166002600084815260200190815260200160002060009054906101000a900473ffffffffffffffffffffffffffffffffffffffff1673ffffffffffffffffffffffffffffffffffffffff1614159050919050565b600033905090565b816004600083815260200190815260200160002060006101000a81548173ffffffffffffffffffffffffffffffffffffffff021916908373ffffffffffffffffffffffffffffffffffffffff160217905550808273ffffffffffffffffffffffffffffffffffffffff16611bf883610fcf565b73ffffffffffffffffffffffffffffffffffffffff167f8c5be1e5ebec7d5bd14f71427d1e84f3dd0314c0f7b2291e5b200ac8c7c3b92560405160405180910390a45050565b6000611c4982611b11565b611c88576040517f08c379a0000000000000000000000000000000000000000000000000000000008152600401611c7f90613a4b565b60405180910390fd5b6000611c9383610fcf565b90508073ffffffffffffffffffffffffffffffffffffffff168473ffffffffffffffffffffffffffffffffffffffff161480611d0257508373ffffffffffffffffffffffffffffffffffffffff16611cea846106f9565b73ffffffffffffffffffffffffffffffffffffffff16145b80611d135750611d12818561180a565b5b91505092915050565b8273ffffffffffffffffffffffffffffffffffffffff16611d3c82610fcf565b73ffffffffffffffffffffffffffffffffffffffff1614611d92576040517f08c379a0000000000000000000000000000000000000000000000000000000008152600401611d899061396b565b60405180910390fd5b600073ffffffffffffffffffffffffffffffffffffffff168273ffffffffffffffffffffffffffffffffffffffff161415611e02576040517f08c379a0000000000000000000000000000000000000000000000000000000008152600401611df990613a0b565b60405180910390fd5b611e0d8383836123b7565b611e18600082611b85565b6001600360008573ffffffffffffffffffffffffffffffffffffffff1673ffffffffffffffffffffffffffffffffffffffff1681526020019081526020016000206000828254611e689190613df2565b925050819055506001600360008473ffffffffffffffffffffffffffffffffffffffff1673ffffffffffffffffffffffffffffffffffffffff1681526020019081526020016000206000828254611ebf9190613d9c565b92505081905550816002600083815260200190815260200160002060006101000a81548173ffffffffffffffffffffffffffffffffffffffff021916908373ffffffffffffffffffffffffffffffffffffffff160217905550808273ffffffffffffffffffffffffffffffffffffffff168473ffffffffffffffffffffffffffffffffffffffff167fddf252ad1be2c89b69c2b068fc378daa952ba7f163c4a11628f55a4df523b3ef60405160405180910390a4611f7e8383836124cb565b505050565b611f9d8282604051806020016040528060008152506124d0565b5050565b6000611fac82610fcf565b9050611fba816000846123b7565b611fc5600083611b85565b6001600360008373ffffffffffffffffffffffffffffffffffffffff1673ffffffffffffffffffffffffffffffffffffffff16815260200190815260200160002060008282546120159190613df2565b925050819055506002600083815260200190815260200160002060006101000a81549073ffffffffffffffffffffffffffffffffffffffff021916905581600073ffffffffffffffffffffffffffffffffffffffff168273ffffffffffffffffffffffffffffffffffffffff167fddf252ad1be2c89b69c2b068fc378daa952ba7f163c4a11628f55a4df523b3ef60405160405180910390a46120ba816000846124cb565b5050565b6000600a60009054906101000a900473ffffffffffffffffffffffffffffffffffffffff16905081600a60006101000a81548173ffffffffffffffffffffffffffffffffffffffff021916908373ffffffffffffffffffffffffffffffffffffffff1602179055508173ffffffffffffffffffffffffffffffffffffffff168173ffffffffffffffffffffffffffffffffffffffff167f8be0079c531659141344cd1fd0a4f28419497f9722a3daafe3b4186f6b6457e060405160405180910390a35050565b8173ffffffffffffffffffffffffffffffffffffffff168373ffffffffffffffffffffffffffffffffffffffff1614156121f3576040517f08c379a00000000000000000000000000000000000000000000000000000000081526004016121ea90613a2b565b60405180910390fd5b80600560008573ffffffffffffffffffffffffffffffffffffffff1673ffffffffffffffffffffffffffffffffffffffff16815260200190815260200160002060008473ffffffffffffffffffffffffffffffffffffffff1673ffffffffffffffffffffffffffffffffffffffff16815260200190815260200160002060006101000a81548160ff0219169083151502179055508173ffffffffffffffffffffffffffffffffffffffff168373ffffffffffffffffffffffffffffffffffffffff167f17307eab39ab6107e8899845ad3d59bd9653f200f220920489ca2b5937696c31836040516122e49190613853565b60405180910390a3505050565b6122fc848484611d1c565b6123088484848461252b565b612347576040517f08c379a000000000000000000000000000000000000000000000000000000000815260040161233e9061390b565b60405180910390fd5b50505050565b60007f01ffc9a7000000000000000000000000000000000000000000000000000000007bffffffffffffffffffffffffffffffffffffffffffffffffffffffff1916827bffffffffffffffffffffffffffffffffffffffffffffffffffffffff1916149050919050565b6123c28383836126c2565b600073ffffffffffffffffffffffffffffffffffffffff168373ffffffffffffffffffffffffffffffffffffffff16141561240557612400816126c7565b612444565b8173ffffffffffffffffffffffffffffffffffffffff168373ffffffffffffffffffffffffffffffffffffffff1614612443576124428382612710565b5b5b600073ffffffffffffffffffffffffffffffffffffffff168273ffffffffffffffffffffffffffffffffffffffff161415612487576124828161287d565b6124c6565b8273ffffffffffffffffffffffffffffffffffffffff168273ffffffffffffffffffffffffffffffffffffffff16146124c5576124c482826129c0565b5b5b505050565b505050565b6124da8383612a3f565b6124e7600084848461252b565b612526576040517f08c379a000000000000000000000000000000000000000000000000000000000815260040161251d9061390b565b60405180910390fd5b505050565b600061254c8473ffffffffffffffffffffffffffffffffffffffff16612c19565b156126b5578373ffffffffffffffffffffffffffffffffffffffff1663150b7a02612575611b7d565b8786866040518563ffffffff1660e01b81526004016125979493929190613807565b602060405180830381600087803b1580156125b157600080fd5b505af19250505080156125e257506040513d601f19601f820116820180604052508101906125df9190613111565b60015b612665573d8060008114612612576040519150601f19603f3d011682016040523d82523d6000602084013e612617565b606091505b5060008151141561265d576040517f08c379a00000000000000000000000000000000000000000000000000000000081526004016126549061390b565b60405180910390fd5b805181602001fd5b63150b7a0260e01b7bffffffffffffffffffffffffffffffffffffffffffffffffffffffff1916817bffffffffffffffffffffffffffffffffffffffffffffffffffffffff1916149150506126ba565b600190505b949350505050565b505050565b6008805490506009600083815260200190815260200160002081905550600881908060018154018082558091505060019003906000526020600020016000909190919091505550565b6000600161271d84611153565b6127279190613df2565b905060006007600084815260200190815260200160002054905081811461280c576000600660008673ffffffffffffffffffffffffffffffffffffffff1673ffffffffffffffffffffffffffffffffffffffff168152602001908152602001600020600084815260200190815260200160002054905080600660008773ffffffffffffffffffffffffffffffffffffffff1673ffffffffffffffffffffffffffffffffffffffff168152602001908152602001600020600084815260200190815260200160002081905550816007600083815260200190815260200160002081905550505b6007600084815260200190815260200160002060009055600660008573ffffffffffffffffffffffffffffffffffffffff1673ffffffffffffffffffffffffffffffffffffffff16815260200190815260200160002060008381526020019081526020016000206000905550505050565b600060016008805490506128919190613df2565b90506000600960008481526020019081526020016000205490506000600883815481106128e7577f4e487b7100000000000000000000000000000000000000000000000000000000600052603260045260246000fd5b90600052602060002001549050806008838154811061292f577f4e487b7100000000000000000000000000000000000000000000000000000000600052603260045260246000fd5b9060005260206000200181905550816009600083815260200190815260200160002081905550600960008581526020019081526020016000206000905560088054806129a4577f4e487b7100000000000000000000000000000000000000000000000000000000600052603160045260246000fd5b6001900381819060005260206000200160009055905550505050565b60006129cb83611153565b905081600660008573ffffffffffffffffffffffffffffffffffffffff1673ffffffffffffffffffffffffffffffffffffffff168152602001908152602001600020600083815260200190815260200160002081905550806007600084815260200190815260200160002081905550505050565b600073ffffffffffffffffffffffffffffffffffffffff168273ffffffffffffffffffffffffffffffffffffffff161415612aaf576040517f08c379a0000000000000000000000000000000000000000000000000000000008152600401612aa690613acb565b60405180910390fd5b612ab881611b11565b15612af8576040517f08c379a0000000000000000000000000000000000000000000000000000000008152600401612aef906139cb565b60405180910390fd5b612b04600083836123b7565b6001600360008473ffffffffffffffffffffffffffffffffffffffff1673ffffffffffffffffffffffffffffffffffffffff1681526020019081526020016000206000828254612b549190613d9c565b92505081905550816002600083815260200190815260200160002060006101000a81548173ffffffffffffffffffffffffffffffffffffffff021916908373ffffffffffffffffffffffffffffffffffffffff160217905550808273ffffffffffffffffffffffffffffffffffffffff16600073ffffffffffffffffffffffffffffffffffffffff167fddf252ad1be2c89b69c2b068fc378daa952ba7f163c4a11628f55a4df523b3ef60405160405180910390a4612c15600083836124cb565b5050565b6000808273ffffffffffffffffffffffffffffffffffffffff163b119050919050565b828054612c4890613ef7565b90600052602060002090601f016020900481019282612c6a5760008555612cb1565b82601f10612c8357803560ff1916838001178555612cb1565b82800160010185558215612cb1579182015b82811115612cb0578235825591602001919060010190612c95565b5b509050612cbe9190612d48565b5090565b828054612cce90613ef7565b90600052602060002090601f016020900481019282612cf05760008555612d37565b82601f10612d0957805160ff1916838001178555612d37565b82800160010185558215612d37579182015b82811115612d36578251825591602001919060010190612d1b565b5b509050612d449190612d48565b5090565b5b80821115612d61576000816000905550600101612d49565b5090565b6000612d78612d7384613ce2565b613cbd565b905082815260208101848484011115612d9057600080fd5b612d9b848285613eb5565b509392505050565b6000612db6612db184613d13565b613cbd565b905082815260208101848484011115612dce57600080fd5b612dd9848285613eb5565b509392505050565b600081359050612df081614771565b92915050565b600081359050612e0581614788565b92915050565b600081359050612e1a8161479f565b92915050565b600081519050612e2f8161479f565b92915050565b600082601f830112612e4657600080fd5b8135612e56848260208601612d65565b91505092915050565b600081359050612e6e816147b6565b92915050565b60008083601f840112612e8657600080fd5b8235905067ffffffffffffffff811115612e9f57600080fd5b602083019150836001820283011115612eb757600080fd5b9250929050565b600082601f830112612ecf57600080fd5b8135612edf848260208601612da3565b91505092915050565b600060608284031215612efa57600080fd5b81905092915050565b600081359050612f12816147cd565b92915050565b600060208284031215612f2a57600080fd5b6000612f3884828501612de1565b91505092915050565b60008060408385031215612f5457600080fd5b6000612f6285828601612de1565b9250506020612f7385828601612de1565b9150509250929050565b600080600060608486031215612f9257600080fd5b6000612fa086828701612de1565b9350506020612fb186828701612de1565b9250506040612fc286828701612f03565b9150509250925092565b60008060008060808587031215612fe257600080fd5b6000612ff087828801612de1565b945050602061300187828801612de1565b935050604061301287828801612f03565b925050606085013567ffffffffffffffff81111561302f57600080fd5b61303b87828801612e35565b91505092959194509250565b6000806040838503121561305a57600080fd5b600061306885828601612de1565b925050602061307985828601612df6565b9150509250929050565b6000806040838503121561309657600080fd5b60006130a485828601612de1565b92505060206130b585828601612f03565b9150509250929050565b6000602082840312156130d157600080fd5b60006130df84828501612df6565b91505092915050565b6000602082840312156130fa57600080fd5b600061310884828501612e0b565b91505092915050565b60006020828403121561312357600080fd5b600061313184828501612e20565b91505092915050565b60006020828403121561314c57600080fd5b600061315a84828501612e5f565b91505092915050565b60006020828403121561317557600080fd5b600082013567ffffffffffffffff81111561318f57600080fd5b61319b84828501612ebe565b91505092915050565b6000602082840312156131b657600080fd5b600082013567ffffffffffffffff8111156131d057600080fd5b6131dc84828501612ee8565b91505092915050565b6000602082840312156131f757600080fd5b600061320584828501612f03565b91505092915050565b60008060006040848603121561322357600080fd5b600061323186828701612f03565b935050602084013567ffffffffffffffff81111561324e57600080fd5b61325a86828701612e74565b92509250509250925092565b61326f81613e26565b82525050565b61327e81613e38565b82525050565b600061328f82613d59565b6132998185613d6f565b93506132a9818560208601613ec4565b6132b28161405b565b840191505092915050565b6132c681613e70565b82525050565b60006132d88385613d91565b93506132e5838584613eb5565b82840190509392505050565b60006132fc82613d64565b6133068185613d80565b9350613316818560208601613ec4565b61331f8161405b565b840191505092915050565b6000815461333781613ef7565b6133418186613d91565b9450600182166000811461335c576001811461336d576133a0565b60ff198316865281860193506133a0565b61337685613d44565b60005b8381101561339857815481890152600182019150602081019050613379565b838801955050505b50505092915050565b60006133b6601383613d80565b91506133c18261406c565b602082019050919050565b60006133d9602b83613d80565b91506133e482614095565b604082019050919050565b60006133fc601a83613d80565b9150613407826140e4565b602082019050919050565b600061341f603283613d80565b915061342a8261410d565b604082019050919050565b6000613442602683613d80565b915061344d8261415c565b604082019050919050565b6000613465600783613d80565b9150613470826141ab565b602082019050919050565b6000613488602583613d80565b9150613493826141d4565b604082019050919050565b60006134ab602483613d80565b91506134b682614223565b604082019050919050565b60006134ce601183613d80565b91506134d982614272565b602082019050919050565b60006134f1601c83613d80565b91506134fc8261429b565b602082019050919050565b6000613514602983613d80565b915061351f826142c4565b604082019050919050565b6000613537602483613d80565b915061354282614313565b604082019050919050565b600061355a601983613d80565b915061356582614362565b602082019050919050565b600061357d602c83613d80565b91506135888261438b565b604082019050919050565b60006135a0603883613d80565b91506135ab826143da565b604082019050919050565b60006135c3602a83613d80565b91506135ce82614429565b604082019050919050565b60006135e6602983613d80565b91506135f182614478565b604082019050919050565b6000613609602083613d80565b9150613614826144c7565b602082019050919050565b600061362c602c83613d80565b9150613637826144f0565b604082019050919050565b600061364f602083613d80565b915061365a8261453f565b602082019050919050565b6000613672602f83613d80565b915061367d82614568565b604082019050919050565b6000613695602183613d80565b91506136a0826145b7565b604082019050919050565b60006136b8601783613d80565b91506136c382614606565b602082019050919050565b60006136db601083613d80565b91506136e68261462f565b602082019050919050565b60006136fe603183613d80565b915061370982614658565b604082019050919050565b6000613721602c83613d80565b915061372c826146a7565b604082019050919050565b6000613744601583613d80565b915061374f826146f6565b602082019050919050565b6000613767601183613d80565b91506137728261471f565b602082019050919050565b600061378a601f83613d80565b915061379582614748565b602082019050919050565b6137a981613eab565b82525050565b60006137bc8284866132cc565b91508190509392505050565b60006137d4828561332a565b91506137e0828461332a565b91508190509392505050565b60006020820190506138016000830184613266565b92915050565b600060808201905061381c6000830187613266565b6138296020830186613266565b61383660408301856137a0565b81810360608301526138488184613284565b905095945050505050565b60006020820190506138686000830184613275565b92915050565b600060208201905061388360008301846132bd565b92915050565b600060208201905081810360008301526138a381846132f1565b905092915050565b600060208201905081810360008301526138c4816133a9565b9050919050565b600060208201905081810360008301526138e4816133cc565b9050919050565b60006020820190508181036000830152613904816133ef565b9050919050565b6000602082019050818103600083015261392481613412565b9050919050565b6000602082019050818103600083015261394481613435565b9050919050565b6000602082019050818103600083015261396481613458565b9050919050565b600060208201905081810360008301526139848161347b565b9050919050565b600060208201905081810360008301526139a48161349e565b9050919050565b600060208201905081810360008301526139c4816134c1565b9050919050565b600060208201905081810360008301526139e4816134e4565b9050919050565b60006020820190508181036000830152613a0481613507565b9050919050565b60006020820190508181036000830152613a248161352a565b9050919050565b60006020820190508181036000830152613a448161354d565b9050919050565b60006020820190508181036000830152613a6481613570565b9050919050565b60006020820190508181036000830152613a8481613593565b9050919050565b60006020820190508181036000830152613aa4816135b6565b9050919050565b60006020820190508181036000830152613ac4816135d9565b9050919050565b60006020820190508181036000830152613ae4816135fc565b9050919050565b60006020820190508181036000830152613b048161361f565b9050919050565b60006020820190508181036000830152613b2481613642565b9050919050565b60006020820190508181036000830152613b4481613665565b9050919050565b60006020820190508181036000830152613b6481613688565b9050919050565b60006020820190508181036000830152613b84816136ab565b9050919050565b60006020820190508181036000830152613ba4816136ce565b9050919050565b60006020820190508181036000830152613bc4816136f1565b9050919050565b60006020820190508181036000830152613be481613714565b9050919050565b60006020820190508181036000830152613c0481613737565b9050919050565b60006020820190508181036000830152613c248161375a565b9050919050565b60006020820190508181036000830152613c448161377d565b9050919050565b6000602082019050613c6060008301846137a0565b92915050565b60008083356001602003843603038112613c7f57600080fd5b80840192508235915067ffffffffffffffff821115613c9d57600080fd5b602083019250600182023603831315613cb557600080fd5b509250929050565b6000613cc7613cd8565b9050613cd38282613f29565b919050565b6000604051905090565b600067ffffffffffffffff821115613cfd57613cfc61402c565b5b613d068261405b565b9050602081019050919050565b600067ffffffffffffffff821115613d2e57613d2d61402c565b5b613d378261405b565b9050602081019050919050565b60008190508160005260206000209050919050565b600081519050919050565b600081519050919050565b600082825260208201905092915050565b600082825260208201905092915050565b600081905092915050565b6000613da782613eab565b9150613db283613eab565b9250827fffffffffffffffffffffffffffffffffffffffffffffffffffffffffffffffff03821115613de757613de6613fce565b5b828201905092915050565b6000613dfd82613eab565b9150613e0883613eab565b925082821015613e1b57613e1a613fce565b5b828203905092915050565b6000613e3182613e8b565b9050919050565b60008115159050919050565b60007fffffffff0000000000000000000000000000000000000000000000000000000082169050919050565b60008160030b9050919050565b600061ffff82169050919050565b600073ffffffffffffffffffffffffffffffffffffffff82169050919050565b6000819050919050565b82818337600083830152505050565b60005b83811015613ee2578082015181840152602081019050613ec7565b83811115613ef1576000848401525b50505050565b60006002820490506001821680613f0f57607f821691505b60208210811415613f2357613f22613ffd565b5b50919050565b613f328261405b565b810181811067ffffffffffffffff82111715613f5157613f5061402c565b5b80604052505050565b6000613f6582613e7d565b915061ffff821415613f7a57613f79613fce565b5b600182019050919050565b6000613f9082613eab565b91507fffffffffffffffffffffffffffffffffffffffffffffffffffffffffffffffff821415613fc357613fc2613fce565b5b600182019050919050565b7f4e487b7100000000000000000000000000000000000000000000000000000000600052601160045260246000fd5b7f4e487b7100000000000000000000000000000000000000000000000000000000600052602260045260246000fd5b7f4e487b7100000000000000000000000000000000000000000000000000000000600052604160045260246000fd5b6000601f19601f8301169050919050565b7f4d696e74696e6720756e617661696c61626c6500000000000000000000000000600082015250565b7f455243373231456e756d657261626c653a206f776e657220696e646578206f7560008201527f74206f6620626f756e6473000000000000000000000000000000000000000000602082015250565b7f5468697320746f6b656e20646f6573206e6f742065786973742e000000000000600082015250565b7f4552433732313a207472616e7366657220746f206e6f6e20455243373231526560008201527f63656976657220696d706c656d656e7465720000000000000000000000000000602082015250565b7f4f776e61626c653a206e6577206f776e657220697320746865207a65726f206160008201527f6464726573730000000000000000000000000000000000000000000000000000602082015250565b7f4e6f206970667300000000000000000000000000000000000000000000000000600082015250565b7f4552433732313a207472616e736665722066726f6d20696e636f72726563742060008201527f6f776e6572000000000000000000000000000000000000000000000000000000602082015250565b7f596f7520617265206e6f7420746865206f776e6572206f66207468697320746f60008201527f6b656e2e00000000000000000000000000000000000000000000000000000000602082015250565b7f416c6c20746f6b656e73206d696e746564000000000000000000000000000000600082015250565b7f4552433732313a20746f6b656e20616c7265616479206d696e74656400000000600082015250565b7f54686973204950465320686173682068617320616c7265616479206265656e2060008201527f61737369676e65642e0000000000000000000000000000000000000000000000602082015250565b7f4552433732313a207472616e7366657220746f20746865207a65726f2061646460008201527f7265737300000000000000000000000000000000000000000000000000000000602082015250565b7f4552433732313a20617070726f766520746f2063616c6c657200000000000000600082015250565b7f4552433732313a206f70657261746f7220717565727920666f72206e6f6e657860008201527f697374656e7420746f6b656e0000000000000000000000000000000000000000602082015250565b7f4552433732313a20617070726f76652063616c6c6572206973206e6f74206f7760008201527f6e6572206e6f7220617070726f76656420666f7220616c6c0000000000000000602082015250565b7f4552433732313a2062616c616e636520717565727920666f7220746865207a6560008201527f726f206164647265737300000000000000000000000000000000000000000000602082015250565b7f4552433732313a206f776e657220717565727920666f72206e6f6e657869737460008201527f656e7420746f6b656e0000000000000000000000000000000000000000000000602082015250565b7f4552433732313a206d696e7420746f20746865207a65726f2061646472657373600082015250565b7f4552433732313a20617070726f76656420717565727920666f72206e6f6e657860008201527f697374656e7420746f6b656e0000000000000000000000000000000000000000602082015250565b7f4f776e61626c653a2063616c6c6572206973206e6f7420746865206f776e6572600082015250565b7f4552433732314d657461646174613a2055524920717565727920666f72206e6f60008201527f6e6578697374656e7420746f6b656e0000000000000000000000000000000000602082015250565b7f4552433732313a20617070726f76616c20746f2063757272656e74206f776e6560008201527f7200000000000000000000000000000000000000000000000000000000000000602082015250565b7f417661696c61626c6520746f6b656e73206d696e746564000000000000000000600082015250565b7f4f776e6572206d696e74206c696d697400000000000000000000000000000000600082015250565b7f4552433732313a207472616e736665722063616c6c6572206973206e6f74206f60008201527f776e6572206e6f7220617070726f766564000000000000000000000000000000602082015250565b7f455243373231456e756d657261626c653a20676c6f62616c20696e646578206f60008201527f7574206f6620626f756e64730000000000000000000000000000000000000000602082015250565b7f596f752063616e6e6f74206d696e74206d6f72652e0000000000000000000000600082015250565b7f496e76616c696420746f6b656e2069642e000000000000000000000000000000600082015250565b7f5265656e7472616e637947756172643a207265656e7472616e742063616c6c00600082015250565b61477a81613e26565b811461478557600080fd5b50565b61479181613e38565b811461479c57600080fd5b50565b6147a881613e44565b81146147b357600080fd5b50565b6147bf81613e70565b81146147ca57600080fd5b50565b6147d681613eab565b81146147e157600080fd5b5056fea264697066735822122035e7c706e3b6094cca7b4c55dee7c0e73b55d35849dd33ba620d80a1fbd68d4864736f6c63430008040033",
    "linkReferences": {},
    "deployedLinkReferences": {}
}