{
  "_format": "hh-sol-artifact-1",
  "contractName": "Build",
  "sourceName": "contracts/Build.sol",
  "abi": [
    {
      "inputs": [],
      "stateMutability": "nonpayable",
      "type": "constructor"
    },
    {
      "anonymous": false,
      "inputs": [
        {
          "indexed": true,
          "internalType": "address",
          "name": "owner",
          "type": "address"
        },
        {
          "indexed": true,
          "internalType": "address",
          "name": "spender",
          "type": "address"
        },
        {
          "indexed": false,
          "internalType": "uint256",
          "name": "value",
          "type": "uint256"
        }
      ],
      "name": "Approval",
      "type": "event"
    },
    {
      "anonymous": false,
      "inputs": [
        {
          "indexed": true,
          "internalType": "address",
          "name": "previousOwner",
          "type": "address"
        },
        {
          "indexed": true,
          "internalType": "address",
          "name": "newOwner",
          "type": "address"
        }
      ],
      "name": "OwnershipTransferred",
      "type": "event"
    },
    {
      "anonymous": false,
      "inputs": [
        {
          "indexed": true,
          "internalType": "address",
          "name": "from",
          "type": "address"
        },
        {
          "indexed": true,
          "internalType": "address",
          "name": "to",
          "type": "address"
        },
        {
          "indexed": false,
          "internalType": "uint256",
          "name": "value",
          "type": "uint256"
        }
      ],
      "name": "Transfer",
      "type": "event"
    },
    {
      "inputs": [
        {
          "internalType": "address",
          "name": "owner",
          "type": "address"
        },
        {
          "internalType": "address",
          "name": "spender",
          "type": "address"
        }
      ],
      "name": "allowance",
      "outputs": [
        {
          "internalType": "uint256",
          "name": "",
          "type": "uint256"
        }
      ],
      "stateMutability": "view",
      "type": "function"
    },
    {
      "inputs": [
        {
          "internalType": "address",
          "name": "spender",
          "type": "address"
        },
        {
          "internalType": "uint256",
          "name": "amount",
          "type": "uint256"
        }
      ],
      "name": "approve",
      "outputs": [
        {
          "internalType": "bool",
          "name": "",
          "type": "bool"
        }
      ],
      "stateMutability": "nonpayable",
      "type": "function"
    },
    {
      "inputs": [
        {
          "internalType": "address",
          "name": "account",
          "type": "address"
        }
      ],
      "name": "balanceOf",
      "outputs": [
        {
          "internalType": "uint256",
          "name": "",
          "type": "uint256"
        }
      ],
      "stateMutability": "view",
      "type": "function"
    },
    {
      "inputs": [
        {
          "internalType": "uint256",
          "name": "amount",
          "type": "uint256"
        }
      ],
      "name": "burn",
      "outputs": [],
      "stateMutability": "nonpayable",
      "type": "function"
    },
    {
      "inputs": [],
      "name": "decimals",
      "outputs": [
        {
          "internalType": "uint8",
          "name": "",
          "type": "uint8"
        }
      ],
      "stateMutability": "pure",
      "type": "function"
    },
    {
      "inputs": [
        {
          "internalType": "address",
          "name": "spender",
          "type": "address"
        },
        {
          "internalType": "uint256",
          "name": "subtractedValue",
          "type": "uint256"
        }
      ],
      "name": "decreaseAllowance",
      "outputs": [
        {
          "internalType": "bool",
          "name": "",
          "type": "bool"
        }
      ],
      "stateMutability": "nonpayable",
      "type": "function"
    },
    {
      "inputs": [
        {
          "internalType": "address",
          "name": "spender",
          "type": "address"
        },
        {
          "internalType": "uint256",
          "name": "addedValue",
          "type": "uint256"
        }
      ],
      "name": "increaseAllowance",
      "outputs": [
        {
          "internalType": "bool",
          "name": "",
          "type": "bool"
        }
      ],
      "stateMutability": "nonpayable",
      "type": "function"
    },
    {
      "inputs": [
        {
          "internalType": "uint256",
          "name": "amount",
          "type": "uint256"
        }
      ],
      "name": "mint",
      "outputs": [],
      "stateMutability": "nonpayable",
      "type": "function"
    },
    {
      "inputs": [],
      "name": "name",
      "outputs": [
        {
          "internalType": "string",
          "name": "",
          "type": "string"
        }
      ],
      "stateMutability": "view",
      "type": "function"
    },
    {
      "inputs": [],
      "name": "owner",
      "outputs": [
        {
          "internalType": "address",
          "name": "",
          "type": "address"
        }
      ],
      "stateMutability": "view",
      "type": "function"
    },
    {
      "inputs": [],
      "name": "renounceOwnership",
      "outputs": [],
      "stateMutability": "nonpayable",
      "type": "function"
    },
    {
      "inputs": [],
      "name": "symbol",
      "outputs": [
        {
          "internalType": "string",
          "name": "",
          "type": "string"
        }
      ],
      "stateMutability": "view",
      "type": "function"
    },
    {
      "inputs": [],
      "name": "totalSupply",
      "outputs": [
        {
          "internalType": "uint256",
          "name": "",
          "type": "uint256"
        }
      ],
      "stateMutability": "view",
      "type": "function"
    },
    {
      "inputs": [
        {
          "internalType": "address",
          "name": "to",
          "type": "address"
        },
        {
          "internalType": "uint256",
          "name": "amount",
          "type": "uint256"
        }
      ],
      "name": "transfer",
      "outputs": [
        {
          "internalType": "bool",
          "name": "",
          "type": "bool"
        }
      ],
      "stateMutability": "nonpayable",
      "type": "function"
    },
    {
      "inputs": [
        {
          "internalType": "address",
          "name": "from",
          "type": "address"
        },
        {
          "internalType": "address",
          "name": "to",
          "type": "address"
        },
        {
          "internalType": "uint256",
          "name": "amount",
          "type": "uint256"
        }
      ],
      "name": "transferFrom",
      "outputs": [
        {
          "internalType": "bool",
          "name": "",
          "type": "bool"
        }
      ],
      "stateMutability": "nonpayable",
      "type": "function"
    },
    {
      "inputs": [
        {
          "internalType": "address",
          "name": "newOwner",
          "type": "address"
        }
      ],
      "name": "transferOwnership",
      "outputs": [],
      "stateMutability": "nonpayable",
      "type": "function"
    }
  ],
  "bytecode": "0x60806040523480156200001157600080fd5b506040518060400160405280600f81526020017f4d6574616372616674204275696c6400000000000000000000000000000000008152506040518060400160405280600581526020017f4255494c44000000000000000000000000000000000000000000000000000000815250816003908051906020019062000096929190620001a6565b508060049080519060200190620000af929190620001a6565b505050620000d2620000c6620000d860201b60201c565b620000e060201b60201c565b620002bb565b600033905090565b6000600560009054906101000a900473ffffffffffffffffffffffffffffffffffffffff16905081600560006101000a81548173ffffffffffffffffffffffffffffffffffffffff021916908373ffffffffffffffffffffffffffffffffffffffff1602179055508173ffffffffffffffffffffffffffffffffffffffff168173ffffffffffffffffffffffffffffffffffffffff167f8be0079c531659141344cd1fd0a4f28419497f9722a3daafe3b4186f6b6457e060405160405180910390a35050565b828054620001b49062000256565b90600052602060002090601f016020900481019282620001d8576000855562000224565b82601f10620001f357805160ff191683800117855562000224565b8280016001018555821562000224579182015b828111156200022357825182559160200191906001019062000206565b5b50905062000233919062000237565b5090565b5b808211156200025257600081600090555060010162000238565b5090565b600060028204905060018216806200026f57607f821691505b602082108114156200028657620002856200028c565b5b50919050565b7f4e487b7100000000000000000000000000000000000000000000000000000000600052602260045260246000fd5b611ce280620002cb6000396000f3fe608060405234801561001057600080fd5b50600436106101005760003560e01c8063715018a611610097578063a457c2d711610066578063a457c2d71461029d578063a9059cbb146102cd578063dd62ed3e146102fd578063f2fde38b1461032d57610100565b8063715018a61461023b5780638da5cb5b1461024557806395d89b4114610263578063a0712d681461028157610100565b8063313ce567116100d3578063313ce567146101a157806339509351146101bf57806342966c68146101ef57806370a082311461020b57610100565b806306fdde0314610105578063095ea7b31461012357806318160ddd1461015357806323b872dd14610171575b600080fd5b61010d610349565b60405161011a9190611595565b60405180910390f35b61013d600480360381019061013891906112e1565b6103db565b60405161014a919061157a565b60405180910390f35b61015b6103fe565b6040516101689190611737565b60405180910390f35b61018b60048036038101906101869190611292565b610408565b604051610198919061157a565b60405180910390f35b6101a9610437565b6040516101b69190611752565b60405180910390f35b6101d960048036038101906101d491906112e1565b610440565b6040516101e6919061157a565b60405180910390f35b6102096004803603810190610204919061131d565b6104ea565b005b6102256004803603810190610220919061122d565b6104f7565b6040516102329190611737565b60405180910390f35b61024361053f565b005b61024d6105c7565b60405161025a919061155f565b60405180910390f35b61026b6105f1565b6040516102789190611595565b60405180910390f35b61029b6004803603810190610296919061131d565b610683565b005b6102b760048036038101906102b291906112e1565b610690565b6040516102c4919061157a565b60405180910390f35b6102e760048036038101906102e291906112e1565b61077a565b6040516102f4919061157a565b60405180910390f35b61031760048036038101906103129190611256565b61079d565b6040516103249190611737565b60405180910390f35b6103476004803603810190610342919061122d565b610824565b005b6060600380546103589061189b565b80601f01602080910402602001604051908101604052809291908181526020018280546103849061189b565b80156103d15780601f106103a6576101008083540402835291602001916103d1565b820191906000526020600020905b8154815290600101906020018083116103b457829003601f168201915b5050505050905090565b6000806103e661091c565b90506103f3818585610924565b600191505092915050565b6000600254905090565b60008061041361091c565b9050610420858285610aef565b61042b858585610b7b565b60019150509392505050565b60006005905090565b60008061044b61091c565b90506104df818585600160008673ffffffffffffffffffffffffffffffffffffffff1673ffffffffffffffffffffffffffffffffffffffff16815260200190815260200160002060008973ffffffffffffffffffffffffffffffffffffffff1673ffffffffffffffffffffffffffffffffffffffff168152602001908152602001600020546104da9190611789565b610924565b600191505092915050565b6104f43382610dfc565b50565b60008060008373ffffffffffffffffffffffffffffffffffffffff1673ffffffffffffffffffffffffffffffffffffffff168152602001908152602001600020549050919050565b61054761091c565b73ffffffffffffffffffffffffffffffffffffffff166105656105c7565b73ffffffffffffffffffffffffffffffffffffffff16146105bb576040517f08c379a00000000000000000000000000000000000000000000000000000000081526004016105b290611677565b60405180910390fd5b6105c56000610fd3565b565b6000600560009054906101000a900473ffffffffffffffffffffffffffffffffffffffff16905090565b6060600480546106009061189b565b80601f016020809104026020016040519081016040528092919081815260200182805461062c9061189b565b80156106795780601f1061064e57610100808354040283529160200191610679565b820191906000526020600020905b81548152906001019060200180831161065c57829003601f168201915b5050505050905090565b61068d3382611099565b50565b60008061069b61091c565b90506000600160008373ffffffffffffffffffffffffffffffffffffffff1673ffffffffffffffffffffffffffffffffffffffff16815260200190815260200160002060008673ffffffffffffffffffffffffffffffffffffffff1673ffffffffffffffffffffffffffffffffffffffff16815260200190815260200160002054905083811015610761576040517f08c379a0000000000000000000000000000000000000000000000000000000008152600401610758906116f7565b60405180910390fd5b61076e8286868403610924565b60019250505092915050565b60008061078561091c565b9050610792818585610b7b565b600191505092915050565b6000600160008473ffffffffffffffffffffffffffffffffffffffff1673ffffffffffffffffffffffffffffffffffffffff16815260200190815260200160002060008373ffffffffffffffffffffffffffffffffffffffff1673ffffffffffffffffffffffffffffffffffffffff16815260200190815260200160002054905092915050565b61082c61091c565b73ffffffffffffffffffffffffffffffffffffffff1661084a6105c7565b73ffffffffffffffffffffffffffffffffffffffff16146108a0576040517f08c379a000000000000000000000000000000000000000000000000000000000815260040161089790611677565b60405180910390fd5b600073ffffffffffffffffffffffffffffffffffffffff168173ffffffffffffffffffffffffffffffffffffffff161415610910576040517f08c379a0000000000000000000000000000000000000000000000000000000008152600401610907906115f7565b60405180910390fd5b61091981610fd3565b50565b600033905090565b600073ffffffffffffffffffffffffffffffffffffffff168373ffffffffffffffffffffffffffffffffffffffff161415610994576040517f08c379a000000000000000000000000000000000000000000000000000000000815260040161098b906116d7565b60405180910390fd5b600073ffffffffffffffffffffffffffffffffffffffff168273ffffffffffffffffffffffffffffffffffffffff161415610a04576040517f08c379a00000000000000000000000000000000000000000000000000000000081526004016109fb90611617565b60405180910390fd5b80600160008573ffffffffffffffffffffffffffffffffffffffff1673ffffffffffffffffffffffffffffffffffffffff16815260200190815260200160002060008473ffffffffffffffffffffffffffffffffffffffff1673ffffffffffffffffffffffffffffffffffffffff168152602001908152602001600020819055508173ffffffffffffffffffffffffffffffffffffffff168373ffffffffffffffffffffffffffffffffffffffff167f8c5be1e5ebec7d5bd14f71427d1e84f3dd0314c0f7b2291e5b200ac8c7c3b92583604051610ae29190611737565b60405180910390a3505050565b6000610afb848461079d565b90507fffffffffffffffffffffffffffffffffffffffffffffffffffffffffffffffff8114610b755781811015610b67576040517f08c379a0000000000000000000000000000000000000000000000000000000008152600401610b5e90611637565b60405180910390fd5b610b748484848403610924565b5b50505050565b600073ffffffffffffffffffffffffffffffffffffffff168373ffffffffffffffffffffffffffffffffffffffff161415610beb576040517f08c379a0000000000000000000000000000000000000000000000000000000008152600401610be2906116b7565b60405180910390fd5b600073ffffffffffffffffffffffffffffffffffffffff168273ffffffffffffffffffffffffffffffffffffffff161415610c5b576040517f08c379a0000000000000000000000000000000000000000000000000000000008152600401610c52906115b7565b60405180910390fd5b610c668383836111f9565b60008060008573ffffffffffffffffffffffffffffffffffffffff1673ffffffffffffffffffffffffffffffffffffffff16815260200190815260200160002054905081811015610cec576040517f08c379a0000000000000000000000000000000000000000000000000000000008152600401610ce390611657565b60405180910390fd5b8181036000808673ffffffffffffffffffffffffffffffffffffffff1673ffffffffffffffffffffffffffffffffffffffff16815260200190815260200160002081905550816000808573ffffffffffffffffffffffffffffffffffffffff1673ffffffffffffffffffffffffffffffffffffffff1681526020019081526020016000206000828254610d7f9190611789565b925050819055508273ffffffffffffffffffffffffffffffffffffffff168473ffffffffffffffffffffffffffffffffffffffff167fddf252ad1be2c89b69c2b068fc378daa952ba7f163c4a11628f55a4df523b3ef84604051610de39190611737565b60405180910390a3610df68484846111fe565b50505050565b600073ffffffffffffffffffffffffffffffffffffffff168273ffffffffffffffffffffffffffffffffffffffff161415610e6c576040517f08c379a0000000000000000000000000000000000000000000000000000000008152600401610e6390611697565b60405180910390fd5b610e78826000836111f9565b60008060008473ffffffffffffffffffffffffffffffffffffffff1673ffffffffffffffffffffffffffffffffffffffff16815260200190815260200160002054905081811015610efe576040517f08c379a0000000000000000000000000000000000000000000000000000000008152600401610ef5906115d7565b60405180910390fd5b8181036000808573ffffffffffffffffffffffffffffffffffffffff1673ffffffffffffffffffffffffffffffffffffffff168152602001908152602001600020819055508160026000828254610f5591906117df565b92505081905550600073ffffffffffffffffffffffffffffffffffffffff168373ffffffffffffffffffffffffffffffffffffffff167fddf252ad1be2c89b69c2b068fc378daa952ba7f163c4a11628f55a4df523b3ef84604051610fba9190611737565b60405180910390a3610fce836000846111fe565b505050565b6000600560009054906101000a900473ffffffffffffffffffffffffffffffffffffffff16905081600560006101000a81548173ffffffffffffffffffffffffffffffffffffffff021916908373ffffffffffffffffffffffffffffffffffffffff1602179055508173ffffffffffffffffffffffffffffffffffffffff168173ffffffffffffffffffffffffffffffffffffffff167f8be0079c531659141344cd1fd0a4f28419497f9722a3daafe3b4186f6b6457e060405160405180910390a35050565b600073ffffffffffffffffffffffffffffffffffffffff168273ffffffffffffffffffffffffffffffffffffffff161415611109576040517f08c379a000000000000000000000000000000000000000000000000000000000815260040161110090611717565b60405180910390fd5b611115600083836111f9565b80600260008282546111279190611789565b92505081905550806000808473ffffffffffffffffffffffffffffffffffffffff1673ffffffffffffffffffffffffffffffffffffffff168152602001908152602001600020600082825461117c9190611789565b925050819055508173ffffffffffffffffffffffffffffffffffffffff16600073ffffffffffffffffffffffffffffffffffffffff167fddf252ad1be2c89b69c2b068fc378daa952ba7f163c4a11628f55a4df523b3ef836040516111e19190611737565b60405180910390a36111f5600083836111fe565b5050565b505050565b505050565b60008135905061121281611c7e565b92915050565b60008135905061122781611c95565b92915050565b60006020828403121561123f57600080fd5b600061124d84828501611203565b91505092915050565b6000806040838503121561126957600080fd5b600061127785828601611203565b925050602061128885828601611203565b9150509250929050565b6000806000606084860312156112a757600080fd5b60006112b586828701611203565b93505060206112c686828701611203565b92505060406112d786828701611218565b9150509250925092565b600080604083850312156112f457600080fd5b600061130285828601611203565b925050602061131385828601611218565b9150509250929050565b60006020828403121561132f57600080fd5b600061133d84828501611218565b91505092915050565b61134f81611813565b82525050565b61135e81611825565b82525050565b600061136f8261176d565b6113798185611778565b9350611389818560208601611868565b6113928161192b565b840191505092915050565b60006113aa602383611778565b91506113b58261193c565b604082019050919050565b60006113cd602283611778565b91506113d88261198b565b604082019050919050565b60006113f0602683611778565b91506113fb826119da565b604082019050919050565b6000611413602283611778565b915061141e82611a29565b604082019050919050565b6000611436601d83611778565b915061144182611a78565b602082019050919050565b6000611459602683611778565b915061146482611aa1565b604082019050919050565b600061147c602083611778565b915061148782611af0565b602082019050919050565b600061149f602183611778565b91506114aa82611b19565b604082019050919050565b60006114c2602583611778565b91506114cd82611b68565b604082019050919050565b60006114e5602483611778565b91506114f082611bb7565b604082019050919050565b6000611508602583611778565b915061151382611c06565b604082019050919050565b600061152b601f83611778565b915061153682611c55565b602082019050919050565b61154a81611851565b82525050565b6115598161185b565b82525050565b60006020820190506115746000830184611346565b92915050565b600060208201905061158f6000830184611355565b92915050565b600060208201905081810360008301526115af8184611364565b905092915050565b600060208201905081810360008301526115d08161139d565b9050919050565b600060208201905081810360008301526115f0816113c0565b9050919050565b60006020820190508181036000830152611610816113e3565b9050919050565b6000602082019050818103600083015261163081611406565b9050919050565b6000602082019050818103600083015261165081611429565b9050919050565b600060208201905081810360008301526116708161144c565b9050919050565b600060208201905081810360008301526116908161146f565b9050919050565b600060208201905081810360008301526116b081611492565b9050919050565b600060208201905081810360008301526116d0816114b5565b9050919050565b600060208201905081810360008301526116f0816114d8565b9050919050565b60006020820190508181036000830152611710816114fb565b9050919050565b600060208201905081810360008301526117308161151e565b9050919050565b600060208201905061174c6000830184611541565b92915050565b60006020820190506117676000830184611550565b92915050565b600081519050919050565b600082825260208201905092915050565b600061179482611851565b915061179f83611851565b9250827fffffffffffffffffffffffffffffffffffffffffffffffffffffffffffffffff038211156117d4576117d36118cd565b5b828201905092915050565b60006117ea82611851565b91506117f583611851565b925082821015611808576118076118cd565b5b828203905092915050565b600061181e82611831565b9050919050565b60008115159050919050565b600073ffffffffffffffffffffffffffffffffffffffff82169050919050565b6000819050919050565b600060ff82169050919050565b60005b8381101561188657808201518184015260208101905061186b565b83811115611895576000848401525b50505050565b600060028204905060018216806118b357607f821691505b602082108114156118c7576118c66118fc565b5b50919050565b7f4e487b7100000000000000000000000000000000000000000000000000000000600052601160045260246000fd5b7f4e487b7100000000000000000000000000000000000000000000000000000000600052602260045260246000fd5b6000601f19601f8301169050919050565b7f45524332303a207472616e7366657220746f20746865207a65726f206164647260008201527f6573730000000000000000000000000000000000000000000000000000000000602082015250565b7f45524332303a206275726e20616d6f756e7420657863656564732062616c616e60008201527f6365000000000000000000000000000000000000000000000000000000000000602082015250565b7f4f776e61626c653a206e6577206f776e657220697320746865207a65726f206160008201527f6464726573730000000000000000000000000000000000000000000000000000602082015250565b7f45524332303a20617070726f766520746f20746865207a65726f20616464726560008201527f7373000000000000000000000000000000000000000000000000000000000000602082015250565b7f45524332303a20696e73756666696369656e7420616c6c6f77616e6365000000600082015250565b7f45524332303a207472616e7366657220616d6f756e742065786365656473206260008201527f616c616e63650000000000000000000000000000000000000000000000000000602082015250565b7f4f776e61626c653a2063616c6c6572206973206e6f7420746865206f776e6572600082015250565b7f45524332303a206275726e2066726f6d20746865207a65726f2061646472657360008201527f7300000000000000000000000000000000000000000000000000000000000000602082015250565b7f45524332303a207472616e736665722066726f6d20746865207a65726f20616460008201527f6472657373000000000000000000000000000000000000000000000000000000602082015250565b7f45524332303a20617070726f76652066726f6d20746865207a65726f2061646460008201527f7265737300000000000000000000000000000000000000000000000000000000602082015250565b7f45524332303a2064656372656173656420616c6c6f77616e63652062656c6f7760008201527f207a65726f000000000000000000000000000000000000000000000000000000602082015250565b7f45524332303a206d696e7420746f20746865207a65726f206164647265737300600082015250565b611c8781611813565b8114611c9257600080fd5b50565b611c9e81611851565b8114611ca957600080fd5b5056fea2646970667358221220cfce27ab417e4466956bdd0695a960fb047ebbc0e4cfbb3739e529befe6ec0d764736f6c63430008040033",
  "linkReferences": {},
  "deployedLinkReferences": {}
}