{
  "_format": "hh-sol-artifact-1",
  "contractName": "MetaCraft",
  "sourceName": "contracts/MetaCraft.sol",
  "abi": [
    {
      "inputs": [
        {
          "internalType": "uint256",
          "name": "_mintSupplyCount",
          "type": "uint256"
        },
        {
          "internalType": "uint256",
          "name": "_ownerMintReserveCount",
          "type": "uint256"
        },
        {
          "internalType": "uint256",
          "name": "_maxMintPerAddress",
          "type": "uint256"
        }
      ],
      "stateMutability": "nonpayable",
      "type": "constructor"
    },
    {
      "anonymous": false,
      "inputs": [
        {
          "indexed": true,
          "internalType": "address",
          "name": "owner",
          "type": "address"
        },
        {
          "indexed": true,
          "internalType": "address",
          "name": "approved",
          "type": "address"
        },
        {
          "indexed": true,
          "internalType": "uint256",
          "name": "tokenId",
          "type": "uint256"
        }
      ],
      "name": "Approval",
      "type": "event"
    },
    {
      "anonymous": false,
      "inputs": [
        {
          "indexed": true,
          "internalType": "address",
          "name": "owner",
          "type": "address"
        },
        {
          "indexed": true,
          "internalType": "address",
          "name": "operator",
          "type": "address"
        },
        {
          "indexed": false,
          "internalType": "bool",
          "name": "approved",
          "type": "bool"
        }
      ],
      "name": "ApprovalForAll",
      "type": "event"
    },
    {
      "anonymous": false,
      "inputs": [
        {
          "indexed": true,
          "internalType": "address",
          "name": "previousOwner",
          "type": "address"
        },
        {
          "indexed": true,
          "internalType": "address",
          "name": "newOwner",
          "type": "address"
        }
      ],
      "name": "OwnershipTransferred",
      "type": "event"
    },
    {
      "anonymous": false,
      "inputs": [
        {
          "indexed": true,
          "internalType": "address",
          "name": "from",
          "type": "address"
        },
        {
          "indexed": true,
          "internalType": "address",
          "name": "to",
          "type": "address"
        },
        {
          "indexed": true,
          "internalType": "uint256",
          "name": "tokenId",
          "type": "uint256"
        }
      ],
      "name": "Transfer",
      "type": "event"
    },
    {
      "inputs": [
        {
          "internalType": "address",
          "name": "to",
          "type": "address"
        },
        {
          "internalType": "uint256",
          "name": "tokenId",
          "type": "uint256"
        }
      ],
      "name": "approve",
      "outputs": [],
      "stateMutability": "nonpayable",
      "type": "function"
    },
    {
      "inputs": [
        {
          "internalType": "address",
          "name": "owner",
          "type": "address"
        }
      ],
      "name": "balanceOf",
      "outputs": [
        {
          "internalType": "uint256",
          "name": "",
          "type": "uint256"
        }
      ],
      "stateMutability": "view",
      "type": "function"
    },
    {
      "inputs": [
        {
          "internalType": "uint256",
          "name": "_tokenId",
          "type": "uint256"
        }
      ],
      "name": "burnLand",
      "outputs": [],
      "stateMutability": "nonpayable",
      "type": "function"
    },
    {
      "inputs": [
        {
          "internalType": "string",
          "name": "_ipfsGateway",
          "type": "string"
        }
      ],
      "name": "emergencySetIPFSGateway",
      "outputs": [],
      "stateMutability": "nonpayable",
      "type": "function"
    },
    {
      "inputs": [
        {
          "internalType": "uint256",
          "name": "tokenId",
          "type": "uint256"
        }
      ],
      "name": "getApproved",
      "outputs": [
        {
          "internalType": "address",
          "name": "",
          "type": "address"
        }
      ],
      "stateMutability": "view",
      "type": "function"
    },
    {
      "inputs": [
        {
          "internalType": "uint256",
          "name": "_tokenId",
          "type": "uint256"
        }
      ],
      "name": "getSeed",
      "outputs": [
        {
          "internalType": "int32",
          "name": "",
          "type": "int32"
        }
      ],
      "stateMutability": "view",
      "type": "function"
    },
    {
      "inputs": [],
      "name": "ipfsGateway",
      "outputs": [
        {
          "internalType": "string",
          "name": "",
          "type": "string"
        }
      ],
      "stateMutability": "view",
      "type": "function"
    },
    {
      "inputs": [
        {
          "internalType": "address",
          "name": "owner",
          "type": "address"
        },
        {
          "internalType": "address",
          "name": "operator",
          "type": "address"
        }
      ],
      "name": "isApprovedForAll",
      "outputs": [
        {
          "internalType": "bool",
          "name": "",
          "type": "bool"
        }
      ],
      "stateMutability": "view",
      "type": "function"
    },
    {
      "inputs": [],
      "name": "mintEnabled",
      "outputs": [
        {
          "internalType": "bool",
          "name": "",
          "type": "bool"
        }
      ],
      "stateMutability": "view",
      "type": "function"
    },
    {
      "inputs": [
        {
          "components": [
            {
              "internalType": "uint256",
              "name": "_tokenId",
              "type": "uint256"
            },
            {
              "internalType": "int32",
              "name": "_seed",
              "type": "int32"
            },
            {
              "internalType": "string",
              "name": "_tokenMetadataIPFSHash",
              "type": "string"
            }
          ],
          "internalType": "struct MetaCraft.MintData",
          "name": "_mintData",
          "type": "tuple"
        }
      ],
      "name": "mintLand",
      "outputs": [],
      "stateMutability": "nonpayable",
      "type": "function"
    },
    {
      "inputs": [],
      "name": "mintSupplyCount",
      "outputs": [
        {
          "internalType": "uint256",
          "name": "",
          "type": "uint256"
        }
      ],
      "stateMutability": "view",
      "type": "function"
    },
    {
      "inputs": [],
      "name": "name",
      "outputs": [
        {
          "internalType": "string",
          "name": "",
          "type": "string"
        }
      ],
      "stateMutability": "view",
      "type": "function"
    },
    {
      "inputs": [],
      "name": "owner",
      "outputs": [
        {
          "internalType": "address",
          "name": "",
          "type": "address"
        }
      ],
      "stateMutability": "view",
      "type": "function"
    },
    {
      "inputs": [
        {
          "internalType": "uint256",
          "name": "tokenId",
          "type": "uint256"
        }
      ],
      "name": "ownerOf",
      "outputs": [
        {
          "internalType": "address",
          "name": "",
          "type": "address"
        }
      ],
      "stateMutability": "view",
      "type": "function"
    },
    {
      "inputs": [],
      "name": "renounceOwnership",
      "outputs": [],
      "stateMutability": "nonpayable",
      "type": "function"
    },
    {
      "inputs": [
        {
          "internalType": "address",
          "name": "from",
          "type": "address"
        },
        {
          "internalType": "address",
          "name": "to",
          "type": "address"
        },
        {
          "internalType": "uint256",
          "name": "tokenId",
          "type": "uint256"
        }
      ],
      "name": "safeTransferFrom",
      "outputs": [],
      "stateMutability": "nonpayable",
      "type": "function"
    },
    {
      "inputs": [
        {
          "internalType": "address",
          "name": "from",
          "type": "address"
        },
        {
          "internalType": "address",
          "name": "to",
          "type": "address"
        },
        {
          "internalType": "uint256",
          "name": "tokenId",
          "type": "uint256"
        },
        {
          "internalType": "bytes",
          "name": "_data",
          "type": "bytes"
        }
      ],
      "name": "safeTransferFrom",
      "outputs": [],
      "stateMutability": "nonpayable",
      "type": "function"
    },
    {
      "inputs": [
        {
          "internalType": "address",
          "name": "operator",
          "type": "address"
        },
        {
          "internalType": "bool",
          "name": "approved",
          "type": "bool"
        }
      ],
      "name": "setApprovalForAll",
      "outputs": [],
      "stateMutability": "nonpayable",
      "type": "function"
    },
    {
      "inputs": [
        {
          "internalType": "bool",
          "name": "_enabled",
          "type": "bool"
        }
      ],
      "name": "setMintEnabled",
      "outputs": [],
      "stateMutability": "nonpayable",
      "type": "function"
    },
    {
      "inputs": [
        {
          "internalType": "bytes4",
          "name": "interfaceId",
          "type": "bytes4"
        }
      ],
      "name": "supportsInterface",
      "outputs": [
        {
          "internalType": "bool",
          "name": "",
          "type": "bool"
        }
      ],
      "stateMutability": "view",
      "type": "function"
    },
    {
      "inputs": [],
      "name": "symbol",
      "outputs": [
        {
          "internalType": "string",
          "name": "",
          "type": "string"
        }
      ],
      "stateMutability": "view",
      "type": "function"
    },
    {
      "inputs": [
        {
          "internalType": "uint256",
          "name": "index",
          "type": "uint256"
        }
      ],
      "name": "tokenByIndex",
      "outputs": [
        {
          "internalType": "uint256",
          "name": "",
          "type": "uint256"
        }
      ],
      "stateMutability": "view",
      "type": "function"
    },
    {
      "inputs": [
        {
          "internalType": "uint256",
          "name": "",
          "type": "uint256"
        }
      ],
      "name": "tokenMetadataIPFSHashes",
      "outputs": [
        {
          "internalType": "string",
          "name": "",
          "type": "string"
        }
      ],
      "stateMutability": "view",
      "type": "function"
    },
    {
      "inputs": [
        {
          "internalType": "address",
          "name": "owner",
          "type": "address"
        },
        {
          "internalType": "uint256",
          "name": "index",
          "type": "uint256"
        }
      ],
      "name": "tokenOfOwnerByIndex",
      "outputs": [
        {
          "internalType": "uint256",
          "name": "",
          "type": "uint256"
        }
      ],
      "stateMutability": "view",
      "type": "function"
    },
    {
      "inputs": [
        {
          "internalType": "uint256",
          "name": "_tokenId",
          "type": "uint256"
        }
      ],
      "name": "tokenURI",
      "outputs": [
        {
          "internalType": "string",
          "name": "",
          "type": "string"
        }
      ],
      "stateMutability": "view",
      "type": "function"
    },
    {
      "inputs": [],
      "name": "totalMinted",
      "outputs": [
        {
          "internalType": "uint256",
          "name": "",
          "type": "uint256"
        }
      ],
      "stateMutability": "view",
      "type": "function"
    },
    {
      "inputs": [],
      "name": "totalSupply",
      "outputs": [
        {
          "internalType": "uint256",
          "name": "",
          "type": "uint256"
        }
      ],
      "stateMutability": "view",
      "type": "function"
    },
    {
      "inputs": [
        {
          "internalType": "address",
          "name": "from",
          "type": "address"
        },
        {
          "internalType": "address",
          "name": "to",
          "type": "address"
        },
        {
          "internalType": "uint256",
          "name": "tokenId",
          "type": "uint256"
        }
      ],
      "name": "transferFrom",
      "outputs": [],
      "stateMutability": "nonpayable",
      "type": "function"
    },
    {
      "inputs": [
        {
          "internalType": "address",
          "name": "newOwner",
          "type": "address"
        }
      ],
      "name": "transferOwnership",
      "outputs": [],
      "stateMutability": "nonpayable",
      "type": "function"
    },
    {
      "inputs": [
        {
          "internalType": "uint256",
          "name": "_tokenId",
          "type": "uint256"
        },
        {
          "internalType": "string",
          "name": "_tokenMetadataIPFSHash",
          "type": "string"
        }
      ],
      "name": "updateMetadataIPFSHash",
      "outputs": [],
      "stateMutability": "nonpayable",
      "type": "function"
    }
  ],
  "bytecode": "0x60806040526040518060400160405280601981526020017f68747470733a2f2f63662d697066732e636f6d2f697066732f00000000000000815250600c90805190602001906200005192919062000259565b506000600d60006101000a81548160ff0219169083151502179055506000600e553480156200007f57600080fd5b5060405162004d5338038062004d538339818101604052810190620000a5919062000320565b6040518060400160405280600981526020017f4d657461437261667400000000000000000000000000000000000000000000008152506040518060400160405280600981526020017f4d6574614372616674000000000000000000000000000000000000000000000081525081600090805190602001906200012992919062000259565b5080600190805190602001906200014292919062000259565b50505062000165620001596200018b60201b60201c565b6200019360201b60201c565b6001600b8190555082600f819055508160108190555080601281905550505050620003ff565b600033905090565b6000600a60009054906101000a900473ffffffffffffffffffffffffffffffffffffffff16905081600a60006101000a81548173ffffffffffffffffffffffffffffffffffffffff021916908373ffffffffffffffffffffffffffffffffffffffff1602179055508173ffffffffffffffffffffffffffffffffffffffff168173ffffffffffffffffffffffffffffffffffffffff167f8be0079c531659141344cd1fd0a4f28419497f9722a3daafe3b4186f6b6457e060405160405180910390a35050565b828054620002679062000380565b90600052602060002090601f0160209004810192826200028b5760008555620002d7565b82601f10620002a657805160ff1916838001178555620002d7565b82800160010185558215620002d7579182015b82811115620002d6578251825591602001919060010190620002b9565b5b509050620002e69190620002ea565b5090565b5b8082111562000305576000816000905550600101620002eb565b5090565b6000815190506200031a81620003e5565b92915050565b6000806000606084860312156200033657600080fd5b6000620003468682870162000309565b9350506020620003598682870162000309565b92505060406200036c8682870162000309565b9150509250925092565b6000819050919050565b600060028204905060018216806200039957607f821691505b60208210811415620003b057620003af620003b6565b5b50919050565b7f4e487b7100000000000000000000000000000000000000000000000000000000600052602260045260246000fd5b620003f08162000376565b8114620003fc57600080fd5b50565b614944806200040f6000396000f3fe608060405234801561001057600080fd5b50600436106101da5760003560e01c806390454a0411610104578063c398c2ad116100a2578063e0d4ea3711610071578063e0d4ea3714610555578063e985e9c514610585578063f2fde38b146105b5578063f46a04eb146105d1576101da565b8063c398c2ad146104bb578063c87b56dd146104eb578063ceac65061461051b578063d123973014610537576101da565b8063a22cb465116100de578063a22cb46514610447578063a2309ff814610463578063af57103714610481578063b88d4fde1461049f576101da565b806390454a04146103f157806395d89b411461040d578063970928921461042b576101da565b806342842e0e1161017c5780636613221f1161014b5780636613221f1461037d57806370a0823114610399578063715018a6146103c95780638da5cb5b146103d3576101da565b806342842e0e146102e35780634f6ccce7146102ff5780635e6ffac71461032f5780636352211e1461034d576101da565b8063095ea7b3116101b8578063095ea7b31461025d57806318160ddd1461027957806323b872dd146102975780632f745c59146102b3576101da565b806301ffc9a7146101df57806306fdde031461020f578063081812fc1461022d575b600080fd5b6101f960048036038101906101f491906131d1565b6105ed565b6040516102069190613953565b60405180910390f35b610217610667565b6040516102249190613989565b60405180910390f35b610247600480360381019061024291906132ce565b6106f9565b60405161025491906138ec565b60405180910390f35b6102776004803603810190610272919061316c565b61077e565b005b610281610896565b60405161028e9190613d4b565b60405180910390f35b6102b160048036038101906102ac9190613066565b6108a3565b005b6102cd60048036038101906102c8919061316c565b610903565b6040516102da9190613d4b565b60405180910390f35b6102fd60048036038101906102f89190613066565b6109a8565b005b610319600480360381019061031491906132ce565b6109c8565b6040516103269190613d4b565b60405180910390f35b610337610a5f565b6040516103449190613989565b60405180910390f35b610367600480360381019061036291906132ce565b610aed565b60405161037491906138ec565b60405180910390f35b610397600480360381019061039291906132ce565b610b9f565b005b6103b360048036038101906103ae9190613001565b610d1a565b6040516103c09190613d4b565b60405180910390f35b6103d1610dd2565b005b6103db610e5a565b6040516103e891906138ec565b60405180910390f35b61040b6004803603810190610406919061324c565b610e84565b005b610415610f1a565b6040516104229190613989565b60405180910390f35b6104456004803603810190610440919061328d565b610fac565b005b610461600480360381019061045c9190613130565b61148e565b005b61046b6114a4565b6040516104789190613d4b565b60405180910390f35b6104896114aa565b6040516104969190613d4b565b60405180910390f35b6104b960048036038101906104b491906130b5565b6114b0565b005b6104d560048036038101906104d091906132ce565b611512565b6040516104e29190613989565b60405180910390f35b610505600480360381019061050091906132ce565b6115b2565b6040516105129190613989565b60405180910390f35b610535600480360381019061053091906132f7565b611638565b005b61053f6117af565b60405161054c9190613953565b60405180910390f35b61056f600480360381019061056a91906132ce565b6117c2565b60405161057c919061396e565b60405180910390f35b61059f600480360381019061059a919061302a565b6118b3565b6040516105ac9190613953565b60405180910390f35b6105cf60048036038101906105ca9190613001565b611947565b005b6105eb60048036038101906105e691906131a8565b611a3f565b005b60007f780e9d63000000000000000000000000000000000000000000000000000000007bffffffffffffffffffffffffffffffffffffffffffffffffffffffff1916827bffffffffffffffffffffffffffffffffffffffffffffffffffffffff19161480610660575061065f82611ad8565b5b9050919050565b60606000805461067690614021565b80601f01602080910402602001604051908101604052809291908181526020018280546106a290614021565b80156106ef5780601f106106c4576101008083540402835291602001916106ef565b820191906000526020600020905b8154815290600101906020018083116106d257829003601f168201915b5050505050905090565b600061070482611bba565b610743576040517f08c379a000000000000000000000000000000000000000000000000000000000815260040161073a90613beb565b60405180910390fd5b6004600083815260200190815260200160002060009054906101000a900473ffffffffffffffffffffffffffffffffffffffff169050919050565b600061078982610aed565b90508073ffffffffffffffffffffffffffffffffffffffff168373ffffffffffffffffffffffffffffffffffffffff1614156107fa576040517f08c379a00000000000000000000000000000000000000000000000000000000081526004016107f190613c4b565b60405180910390fd5b8073ffffffffffffffffffffffffffffffffffffffff16610819611c26565b73ffffffffffffffffffffffffffffffffffffffff161480610848575061084781610842611c26565b6118b3565b5b610887576040517f08c379a000000000000000000000000000000000000000000000000000000000815260040161087e90613b6b565b60405180910390fd5b6108918383611c2e565b505050565b6000600880549050905090565b6108b46108ae611c26565b82611ce7565b6108f3576040517f08c379a00000000000000000000000000000000000000000000000000000000081526004016108ea90613cab565b60405180910390fd5b6108fe838383611dc5565b505050565b600061090e83610d1a565b821061094f576040517f08c379a0000000000000000000000000000000000000000000000000000000008152600401610946906139cb565b60405180910390fd5b600660008473ffffffffffffffffffffffffffffffffffffffff1673ffffffffffffffffffffffffffffffffffffffff168152602001908152602001600020600083815260200190815260200160002054905092915050565b6109c3838383604051806020016040528060008152506114b0565b505050565b60006109d2610896565b8210610a13576040517f08c379a0000000000000000000000000000000000000000000000000000000008152600401610a0a90613ccb565b60405180910390fd5b60088281548110610a4d577f4e487b7100000000000000000000000000000000000000000000000000000000600052603260045260246000fd5b90600052602060002001549050919050565b600c8054610a6c90614021565b80601f0160208091040260200160405190810160405280929190818152602001828054610a9890614021565b8015610ae55780601f10610aba57610100808354040283529160200191610ae5565b820191906000526020600020905b815481529060010190602001808311610ac857829003601f168201915b505050505081565b6000806002600084815260200190815260200160002060009054906101000a900473ffffffffffffffffffffffffffffffffffffffff169050600073ffffffffffffffffffffffffffffffffffffffff168173ffffffffffffffffffffffffffffffffffffffff161415610b96576040517f08c379a0000000000000000000000000000000000000000000000000000000008152600401610b8d90613bab565b60405180910390fd5b80915050919050565b80610ba981611bba565b610be8576040517f08c379a0000000000000000000000000000000000000000000000000000000008152600401610bdf906139eb565b60405180910390fd5b610bf0611c26565b73ffffffffffffffffffffffffffffffffffffffff16610c0e610e5a565b73ffffffffffffffffffffffffffffffffffffffff1614610c64576040517f08c379a0000000000000000000000000000000000000000000000000000000008152600401610c5b90613c0b565b60405180910390fd5b600e6000815480929190610c7790613ff7565b919050555060116000815480929190610c8f90613ff7565b91905055506014600083815260200190815260200160002060006101000a81549063ffffffff0219169055601660156000848152602001908152602001600020604051610cdc91906138b1565b908152602001604051809103902060009055601560008381526020019081526020016000206000610d0d9190612ce5565b610d168261202c565b5050565b60008073ffffffffffffffffffffffffffffffffffffffff168273ffffffffffffffffffffffffffffffffffffffff161415610d8b576040517f08c379a0000000000000000000000000000000000000000000000000000000008152600401610d8290613b8b565b60405180910390fd5b600360008373ffffffffffffffffffffffffffffffffffffffff1673ffffffffffffffffffffffffffffffffffffffff168152602001908152602001600020549050919050565b610dda611c26565b73ffffffffffffffffffffffffffffffffffffffff16610df8610e5a565b73ffffffffffffffffffffffffffffffffffffffff1614610e4e576040517f08c379a0000000000000000000000000000000000000000000000000000000008152600401610e4590613c0b565b60405180910390fd5b610e586000612149565b565b6000600a60009054906101000a900473ffffffffffffffffffffffffffffffffffffffff16905090565b610e8c611c26565b73ffffffffffffffffffffffffffffffffffffffff16610eaa610e5a565b73ffffffffffffffffffffffffffffffffffffffff1614610f00576040517f08c379a0000000000000000000000000000000000000000000000000000000008152600401610ef790613c0b565b60405180910390fd5b80600c9080519060200190610f16929190612d25565b5050565b606060018054610f2990614021565b80601f0160208091040260200160405190810160405280929190818152602001828054610f5590614021565b8015610fa25780601f10610f7757610100808354040283529160200191610fa2565b820191906000526020600020905b815481529060010190602001808311610f8557829003601f168201915b5050505050905090565b6002600b541415610ff2576040517f08c379a0000000000000000000000000000000000000000000000000000000008152600401610fe990613d2b565b60405180910390fd5b6002600b81905550600081600001351180156110145750600f54816000013511155b611053576040517f08c379a000000000000000000000000000000000000000000000000000000000815260040161104a90613d0b565b60405180910390fd5b600d60009054906101000a900460ff166110a2576040517f08c379a0000000000000000000000000000000000000000000000000000000008152600401611099906139ab565b60405180910390fd5b600f54600e54106110e8576040517f08c379a00000000000000000000000000000000000000000000000000000000081526004016110df90613aab565b60405180910390fd5b60008180604001906110fa9190613d66565b90501161113c576040517f08c379a000000000000000000000000000000000000000000000000000000000815260040161113390613a4b565b60405180910390fd5b611144610e5a565b73ffffffffffffffffffffffffffffffffffffffff16611162611c26565b73ffffffffffffffffffffffffffffffffffffffff161461127e576012546013600061118c611c26565b73ffffffffffffffffffffffffffffffffffffffff1673ffffffffffffffffffffffffffffffffffffffff16815260200190815260200160002060009054906101000a900461ffff1661ffff1610611219576040517f08c379a000000000000000000000000000000000000000000000000000000000815260040161121090613ceb565b60405180910390fd5b600f5460115460105461122c9190613ef2565b600e546112399190613e9c565b10611279576040517f08c379a000000000000000000000000000000000000000000000000000000000815260040161127090613c6b565b60405180910390fd5b6112c5565b601054601154106112c4576040517f08c379a00000000000000000000000000000000000000000000000000000000081526004016112bb90613c8b565b60405180910390fd5b5b8080604001906112d59190613d66565b601560008460000135815260200190815260200160002091906112f9929190612dab565b50806000013560168280604001906113119190613d66565b60405161131f929190613898565b9081526020016040518091039020819055508060200160208101906113449190613223565b601460008360000135815260200190815260200160002060006101000a81548163ffffffff021916908360030b63ffffffff16021790555060136000611388611c26565b73ffffffffffffffffffffffffffffffffffffffff1673ffffffffffffffffffffffffffffffffffffffff168152602001908152602001600020600081819054906101000a900461ffff16809291906113e090614084565b91906101000a81548161ffff021916908361ffff16021790555050600e600081548092919061140e906140af565b919050555061141b610e5a565b73ffffffffffffffffffffffffffffffffffffffff16611439611c26565b73ffffffffffffffffffffffffffffffffffffffff16141561146e5760116000815480929190611468906140af565b91905055505b611483611479611c26565b826000013561220f565b6001600b8190555050565b6114a0611499611c26565b838361222d565b5050565b600e5481565b600f5481565b6114c16114bb611c26565b83611ce7565b611500576040517f08c379a00000000000000000000000000000000000000000000000000000000081526004016114f790613cab565b60405180910390fd5b61150c8484848461239a565b50505050565b6015602052806000526040600020600091509050805461153190614021565b80601f016020809104026020016040519081016040528092919081815260200182805461155d90614021565b80156115aa5780601f1061157f576101008083540402835291602001916115aa565b820191906000526020600020905b81548152906001019060200180831161158d57829003601f168201915b505050505081565b60606115bd82611bba565b6115fc576040517f08c379a00000000000000000000000000000000000000000000000000000000081526004016115f390613c2b565b60405180910390fd5b600c601560008481526020019081526020016000206040516020016116229291906138c8565b6040516020818303038152906040529050919050565b8261164281611bba565b611681576040517f08c379a0000000000000000000000000000000000000000000000000000000008152600401611678906139eb565b60405180910390fd5b61168a84610aed565b73ffffffffffffffffffffffffffffffffffffffff166116a8611c26565b73ffffffffffffffffffffffffffffffffffffffff16146116fe576040517f08c379a00000000000000000000000000000000000000000000000000000000081526004016116f590613a8b565b60405180910390fd5b600060168484604051611712929190613898565b90815260200160405180910390205414611761576040517f08c379a000000000000000000000000000000000000000000000000000000000815260040161175890613aeb565b60405180910390fd5b8282601560008781526020019081526020016000209190611783929190612dab565b508360168484604051611797929190613898565b90815260200160405180910390208190555050505050565b600d60009054906101000a900460ff1681565b6000816117ce81611bba565b61180d576040517f08c379a0000000000000000000000000000000000000000000000000000000008152600401611804906139eb565b60405180910390fd5b61181683610aed565b73ffffffffffffffffffffffffffffffffffffffff16611834611c26565b73ffffffffffffffffffffffffffffffffffffffff161461188a576040517f08c379a000000000000000000000000000000000000000000000000000000000815260040161188190613a8b565b60405180910390fd5b6014600084815260200190815260200160002060009054906101000a900460030b915050919050565b6000600560008473ffffffffffffffffffffffffffffffffffffffff1673ffffffffffffffffffffffffffffffffffffffff16815260200190815260200160002060008373ffffffffffffffffffffffffffffffffffffffff1673ffffffffffffffffffffffffffffffffffffffff16815260200190815260200160002060009054906101000a900460ff16905092915050565b61194f611c26565b73ffffffffffffffffffffffffffffffffffffffff1661196d610e5a565b73ffffffffffffffffffffffffffffffffffffffff16146119c3576040517f08c379a00000000000000000000000000000000000000000000000000000000081526004016119ba90613c0b565b60405180910390fd5b600073ffffffffffffffffffffffffffffffffffffffff168173ffffffffffffffffffffffffffffffffffffffff161415611a33576040517f08c379a0000000000000000000000000000000000000000000000000000000008152600401611a2a90613a2b565b60405180910390fd5b611a3c81612149565b50565b611a47611c26565b73ffffffffffffffffffffffffffffffffffffffff16611a65610e5a565b73ffffffffffffffffffffffffffffffffffffffff1614611abb576040517f08c379a0000000000000000000000000000000000000000000000000000000008152600401611ab290613c0b565b60405180910390fd5b80600d60006101000a81548160ff02191690831515021790555050565b60007f80ac58cd000000000000000000000000000000000000000000000000000000007bffffffffffffffffffffffffffffffffffffffffffffffffffffffff1916827bffffffffffffffffffffffffffffffffffffffffffffffffffffffff19161480611ba357507f5b5e139f000000000000000000000000000000000000000000000000000000007bffffffffffffffffffffffffffffffffffffffffffffffffffffffff1916827bffffffffffffffffffffffffffffffffffffffffffffffffffffffff1916145b80611bb35750611bb2826123f6565b5b9050919050565b60008073ffffffffffffffffffffffffffffffffffffffff166002600084815260200190815260200160002060009054906101000a900473ffffffffffffffffffffffffffffffffffffffff1673ffffffffffffffffffffffffffffffffffffffff1614159050919050565b600033905090565b816004600083815260200190815260200160002060006101000a81548173ffffffffffffffffffffffffffffffffffffffff021916908373ffffffffffffffffffffffffffffffffffffffff160217905550808273ffffffffffffffffffffffffffffffffffffffff16611ca183610aed565b73ffffffffffffffffffffffffffffffffffffffff167f8c5be1e5ebec7d5bd14f71427d1e84f3dd0314c0f7b2291e5b200ac8c7c3b92560405160405180910390a45050565b6000611cf282611bba565b611d31576040517f08c379a0000000000000000000000000000000000000000000000000000000008152600401611d2890613b4b565b60405180910390fd5b6000611d3c83610aed565b90508073ffffffffffffffffffffffffffffffffffffffff168473ffffffffffffffffffffffffffffffffffffffff161480611dab57508373ffffffffffffffffffffffffffffffffffffffff16611d93846106f9565b73ffffffffffffffffffffffffffffffffffffffff16145b80611dbc5750611dbb81856118b3565b5b91505092915050565b8273ffffffffffffffffffffffffffffffffffffffff16611de582610aed565b73ffffffffffffffffffffffffffffffffffffffff1614611e3b576040517f08c379a0000000000000000000000000000000000000000000000000000000008152600401611e3290613a6b565b60405180910390fd5b600073ffffffffffffffffffffffffffffffffffffffff168273ffffffffffffffffffffffffffffffffffffffff161415611eab576040517f08c379a0000000000000000000000000000000000000000000000000000000008152600401611ea290613b0b565b60405180910390fd5b611eb6838383612460565b611ec1600082611c2e565b6001600360008573ffffffffffffffffffffffffffffffffffffffff1673ffffffffffffffffffffffffffffffffffffffff1681526020019081526020016000206000828254611f119190613ef2565b925050819055506001600360008473ffffffffffffffffffffffffffffffffffffffff1673ffffffffffffffffffffffffffffffffffffffff1681526020019081526020016000206000828254611f689190613e9c565b92505081905550816002600083815260200190815260200160002060006101000a81548173ffffffffffffffffffffffffffffffffffffffff021916908373ffffffffffffffffffffffffffffffffffffffff160217905550808273ffffffffffffffffffffffffffffffffffffffff168473ffffffffffffffffffffffffffffffffffffffff167fddf252ad1be2c89b69c2b068fc378daa952ba7f163c4a11628f55a4df523b3ef60405160405180910390a4612027838383612574565b505050565b600061203782610aed565b905061204581600084612460565b612050600083611c2e565b6001600360008373ffffffffffffffffffffffffffffffffffffffff1673ffffffffffffffffffffffffffffffffffffffff16815260200190815260200160002060008282546120a09190613ef2565b925050819055506002600083815260200190815260200160002060006101000a81549073ffffffffffffffffffffffffffffffffffffffff021916905581600073ffffffffffffffffffffffffffffffffffffffff168273ffffffffffffffffffffffffffffffffffffffff167fddf252ad1be2c89b69c2b068fc378daa952ba7f163c4a11628f55a4df523b3ef60405160405180910390a461214581600084612574565b5050565b6000600a60009054906101000a900473ffffffffffffffffffffffffffffffffffffffff16905081600a60006101000a81548173ffffffffffffffffffffffffffffffffffffffff021916908373ffffffffffffffffffffffffffffffffffffffff1602179055508173ffffffffffffffffffffffffffffffffffffffff168173ffffffffffffffffffffffffffffffffffffffff167f8be0079c531659141344cd1fd0a4f28419497f9722a3daafe3b4186f6b6457e060405160405180910390a35050565b612229828260405180602001604052806000815250612579565b5050565b8173ffffffffffffffffffffffffffffffffffffffff168373ffffffffffffffffffffffffffffffffffffffff16141561229c576040517f08c379a000000000000000000000000000000000000000000000000000000000815260040161229390613b2b565b60405180910390fd5b80600560008573ffffffffffffffffffffffffffffffffffffffff1673ffffffffffffffffffffffffffffffffffffffff16815260200190815260200160002060008473ffffffffffffffffffffffffffffffffffffffff1673ffffffffffffffffffffffffffffffffffffffff16815260200190815260200160002060006101000a81548160ff0219169083151502179055508173ffffffffffffffffffffffffffffffffffffffff168373ffffffffffffffffffffffffffffffffffffffff167f17307eab39ab6107e8899845ad3d59bd9653f200f220920489ca2b5937696c318360405161238d9190613953565b60405180910390a3505050565b6123a5848484611dc5565b6123b1848484846125d4565b6123f0576040517f08c379a00000000000000000000000000000000000000000000000000000000081526004016123e790613a0b565b60405180910390fd5b50505050565b60007f01ffc9a7000000000000000000000000000000000000000000000000000000007bffffffffffffffffffffffffffffffffffffffffffffffffffffffff1916827bffffffffffffffffffffffffffffffffffffffffffffffffffffffff1916149050919050565b61246b83838361276b565b600073ffffffffffffffffffffffffffffffffffffffff168373ffffffffffffffffffffffffffffffffffffffff1614156124ae576124a981612770565b6124ed565b8173ffffffffffffffffffffffffffffffffffffffff168373ffffffffffffffffffffffffffffffffffffffff16146124ec576124eb83826127b9565b5b5b600073ffffffffffffffffffffffffffffffffffffffff168273ffffffffffffffffffffffffffffffffffffffff1614156125305761252b81612926565b61256f565b8273ffffffffffffffffffffffffffffffffffffffff168273ffffffffffffffffffffffffffffffffffffffff161461256e5761256d8282612a69565b5b5b505050565b505050565b6125838383612ae8565b61259060008484846125d4565b6125cf576040517f08c379a00000000000000000000000000000000000000000000000000000000081526004016125c690613a0b565b60405180910390fd5b505050565b60006125f58473ffffffffffffffffffffffffffffffffffffffff16612cc2565b1561275e578373ffffffffffffffffffffffffffffffffffffffff1663150b7a0261261e611c26565b8786866040518563ffffffff1660e01b81526004016126409493929190613907565b602060405180830381600087803b15801561265a57600080fd5b505af192505050801561268b57506040513d601f19601f8201168201806040525081019061268891906131fa565b60015b61270e573d80600081146126bb576040519150601f19603f3d011682016040523d82523d6000602084013e6126c0565b606091505b50600081511415612706576040517f08c379a00000000000000000000000000000000000000000000000000000000081526004016126fd90613a0b565b60405180910390fd5b805181602001fd5b63150b7a0260e01b7bffffffffffffffffffffffffffffffffffffffffffffffffffffffff1916817bffffffffffffffffffffffffffffffffffffffffffffffffffffffff191614915050612763565b600190505b949350505050565b505050565b6008805490506009600083815260200190815260200160002081905550600881908060018154018082558091505060019003906000526020600020016000909190919091505550565b600060016127c684610d1a565b6127d09190613ef2565b90506000600760008481526020019081526020016000205490508181146128b5576000600660008673ffffffffffffffffffffffffffffffffffffffff1673ffffffffffffffffffffffffffffffffffffffff168152602001908152602001600020600084815260200190815260200160002054905080600660008773ffffffffffffffffffffffffffffffffffffffff1673ffffffffffffffffffffffffffffffffffffffff168152602001908152602001600020600084815260200190815260200160002081905550816007600083815260200190815260200160002081905550505b6007600084815260200190815260200160002060009055600660008573ffffffffffffffffffffffffffffffffffffffff1673ffffffffffffffffffffffffffffffffffffffff16815260200190815260200160002060008381526020019081526020016000206000905550505050565b6000600160088054905061293a9190613ef2565b9050600060096000848152602001908152602001600020549050600060088381548110612990577f4e487b7100000000000000000000000000000000000000000000000000000000600052603260045260246000fd5b9060005260206000200154905080600883815481106129d8577f4e487b7100000000000000000000000000000000000000000000000000000000600052603260045260246000fd5b906000526020600020018190555081600960008381526020019081526020016000208190555060096000858152602001908152602001600020600090556008805480612a4d577f4e487b7100000000000000000000000000000000000000000000000000000000600052603160045260246000fd5b6001900381819060005260206000200160009055905550505050565b6000612a7483610d1a565b905081600660008573ffffffffffffffffffffffffffffffffffffffff1673ffffffffffffffffffffffffffffffffffffffff168152602001908152602001600020600083815260200190815260200160002081905550806007600084815260200190815260200160002081905550505050565b600073ffffffffffffffffffffffffffffffffffffffff168273ffffffffffffffffffffffffffffffffffffffff161415612b58576040517f08c379a0000000000000000000000000000000000000000000000000000000008152600401612b4f90613bcb565b60405180910390fd5b612b6181611bba565b15612ba1576040517f08c379a0000000000000000000000000000000000000000000000000000000008152600401612b9890613acb565b60405180910390fd5b612bad60008383612460565b6001600360008473ffffffffffffffffffffffffffffffffffffffff1673ffffffffffffffffffffffffffffffffffffffff1681526020019081526020016000206000828254612bfd9190613e9c565b92505081905550816002600083815260200190815260200160002060006101000a81548173ffffffffffffffffffffffffffffffffffffffff021916908373ffffffffffffffffffffffffffffffffffffffff160217905550808273ffffffffffffffffffffffffffffffffffffffff16600073ffffffffffffffffffffffffffffffffffffffff167fddf252ad1be2c89b69c2b068fc378daa952ba7f163c4a11628f55a4df523b3ef60405160405180910390a4612cbe60008383612574565b5050565b6000808273ffffffffffffffffffffffffffffffffffffffff163b119050919050565b508054612cf190614021565b6000825580601f10612d035750612d22565b601f016020900490600052602060002090810190612d219190612e31565b5b50565b828054612d3190614021565b90600052602060002090601f016020900481019282612d535760008555612d9a565b82601f10612d6c57805160ff1916838001178555612d9a565b82800160010185558215612d9a579182015b82811115612d99578251825591602001919060010190612d7e565b5b509050612da79190612e31565b5090565b828054612db790614021565b90600052602060002090601f016020900481019282612dd95760008555612e20565b82601f10612df257803560ff1916838001178555612e20565b82800160010185558215612e20579182015b82811115612e1f578235825591602001919060010190612e04565b5b509050612e2d9190612e31565b5090565b5b80821115612e4a576000816000905550600101612e32565b5090565b6000612e61612e5c84613de2565b613dbd565b905082815260208101848484011115612e7957600080fd5b612e84848285613fb5565b509392505050565b6000612e9f612e9a84613e13565b613dbd565b905082815260208101848484011115612eb757600080fd5b612ec2848285613fb5565b509392505050565b600081359050612ed98161489b565b92915050565b600081359050612eee816148b2565b92915050565b600081359050612f03816148c9565b92915050565b600081519050612f18816148c9565b92915050565b600082601f830112612f2f57600080fd5b8135612f3f848260208601612e4e565b91505092915050565b600081359050612f57816148e0565b92915050565b60008083601f840112612f6f57600080fd5b8235905067ffffffffffffffff811115612f8857600080fd5b602083019150836001820283011115612fa057600080fd5b9250929050565b600082601f830112612fb857600080fd5b8135612fc8848260208601612e8c565b91505092915050565b600060608284031215612fe357600080fd5b81905092915050565b600081359050612ffb816148f7565b92915050565b60006020828403121561301357600080fd5b600061302184828501612eca565b91505092915050565b6000806040838503121561303d57600080fd5b600061304b85828601612eca565b925050602061305c85828601612eca565b9150509250929050565b60008060006060848603121561307b57600080fd5b600061308986828701612eca565b935050602061309a86828701612eca565b92505060406130ab86828701612fec565b9150509250925092565b600080600080608085870312156130cb57600080fd5b60006130d987828801612eca565b94505060206130ea87828801612eca565b93505060406130fb87828801612fec565b925050606085013567ffffffffffffffff81111561311857600080fd5b61312487828801612f1e565b91505092959194509250565b6000806040838503121561314357600080fd5b600061315185828601612eca565b925050602061316285828601612edf565b9150509250929050565b6000806040838503121561317f57600080fd5b600061318d85828601612eca565b925050602061319e85828601612fec565b9150509250929050565b6000602082840312156131ba57600080fd5b60006131c884828501612edf565b91505092915050565b6000602082840312156131e357600080fd5b60006131f184828501612ef4565b91505092915050565b60006020828403121561320c57600080fd5b600061321a84828501612f09565b91505092915050565b60006020828403121561323557600080fd5b600061324384828501612f48565b91505092915050565b60006020828403121561325e57600080fd5b600082013567ffffffffffffffff81111561327857600080fd5b61328484828501612fa7565b91505092915050565b60006020828403121561329f57600080fd5b600082013567ffffffffffffffff8111156132b957600080fd5b6132c584828501612fd1565b91505092915050565b6000602082840312156132e057600080fd5b60006132ee84828501612fec565b91505092915050565b60008060006040848603121561330c57600080fd5b600061331a86828701612fec565b935050602084013567ffffffffffffffff81111561333757600080fd5b61334386828701612f5d565b92509250509250925092565b61335881613f26565b82525050565b61336781613f38565b82525050565b600061337882613e59565b6133828185613e6f565b9350613392818560208601613fc4565b61339b81614185565b840191505092915050565b6133af81613f70565b82525050565b60006133c18385613e91565b93506133ce838584613fb5565b82840190509392505050565b60006133e582613e64565b6133ef8185613e80565b93506133ff818560208601613fc4565b61340881614185565b840191505092915050565b6000815461342081614021565b61342a8186613e91565b94506001821660008114613445576001811461345657613489565b60ff19831686528186019350613489565b61345f85613e44565b60005b8381101561348157815481890152600182019150602081019050613462565b838801955050505b50505092915050565b600061349f601383613e80565b91506134aa82614196565b602082019050919050565b60006134c2602b83613e80565b91506134cd826141bf565b604082019050919050565b60006134e5601a83613e80565b91506134f08261420e565b602082019050919050565b6000613508603283613e80565b915061351382614237565b604082019050919050565b600061352b602683613e80565b915061353682614286565b604082019050919050565b600061354e600783613e80565b9150613559826142d5565b602082019050919050565b6000613571602583613e80565b915061357c826142fe565b604082019050919050565b6000613594602483613e80565b915061359f8261434d565b604082019050919050565b60006135b7601183613e80565b91506135c28261439c565b602082019050919050565b60006135da601c83613e80565b91506135e5826143c5565b602082019050919050565b60006135fd602983613e80565b9150613608826143ee565b604082019050919050565b6000613620602483613e80565b915061362b8261443d565b604082019050919050565b6000613643601983613e80565b915061364e8261448c565b602082019050919050565b6000613666602c83613e80565b9150613671826144b5565b604082019050919050565b6000613689603883613e80565b915061369482614504565b604082019050919050565b60006136ac602a83613e80565b91506136b782614553565b604082019050919050565b60006136cf602983613e80565b91506136da826145a2565b604082019050919050565b60006136f2602083613e80565b91506136fd826145f1565b602082019050919050565b6000613715602c83613e80565b91506137208261461a565b604082019050919050565b6000613738602083613e80565b915061374382614669565b602082019050919050565b600061375b602f83613e80565b915061376682614692565b604082019050919050565b600061377e602183613e80565b9150613789826146e1565b604082019050919050565b60006137a1601783613e80565b91506137ac82614730565b602082019050919050565b60006137c4601083613e80565b91506137cf82614759565b602082019050919050565b60006137e7603183613e80565b91506137f282614782565b604082019050919050565b600061380a602c83613e80565b9150613815826147d1565b604082019050919050565b600061382d601583613e80565b915061383882614820565b602082019050919050565b6000613850601183613e80565b915061385b82614849565b602082019050919050565b6000613873601f83613e80565b915061387e82614872565b602082019050919050565b61389281613fab565b82525050565b60006138a58284866133b5565b91508190509392505050565b60006138bd8284613413565b915081905092915050565b60006138d48285613413565b91506138e08284613413565b91508190509392505050565b6000602082019050613901600083018461334f565b92915050565b600060808201905061391c600083018761334f565b613929602083018661334f565b6139366040830185613889565b8181036060830152613948818461336d565b905095945050505050565b6000602082019050613968600083018461335e565b92915050565b600060208201905061398360008301846133a6565b92915050565b600060208201905081810360008301526139a381846133da565b905092915050565b600060208201905081810360008301526139c481613492565b9050919050565b600060208201905081810360008301526139e4816134b5565b9050919050565b60006020820190508181036000830152613a04816134d8565b9050919050565b60006020820190508181036000830152613a24816134fb565b9050919050565b60006020820190508181036000830152613a448161351e565b9050919050565b60006020820190508181036000830152613a6481613541565b9050919050565b60006020820190508181036000830152613a8481613564565b9050919050565b60006020820190508181036000830152613aa481613587565b9050919050565b60006020820190508181036000830152613ac4816135aa565b9050919050565b60006020820190508181036000830152613ae4816135cd565b9050919050565b60006020820190508181036000830152613b04816135f0565b9050919050565b60006020820190508181036000830152613b2481613613565b9050919050565b60006020820190508181036000830152613b4481613636565b9050919050565b60006020820190508181036000830152613b6481613659565b9050919050565b60006020820190508181036000830152613b848161367c565b9050919050565b60006020820190508181036000830152613ba48161369f565b9050919050565b60006020820190508181036000830152613bc4816136c2565b9050919050565b60006020820190508181036000830152613be4816136e5565b9050919050565b60006020820190508181036000830152613c0481613708565b9050919050565b60006020820190508181036000830152613c248161372b565b9050919050565b60006020820190508181036000830152613c448161374e565b9050919050565b60006020820190508181036000830152613c6481613771565b9050919050565b60006020820190508181036000830152613c8481613794565b9050919050565b60006020820190508181036000830152613ca4816137b7565b9050919050565b60006020820190508181036000830152613cc4816137da565b9050919050565b60006020820190508181036000830152613ce4816137fd565b9050919050565b60006020820190508181036000830152613d0481613820565b9050919050565b60006020820190508181036000830152613d2481613843565b9050919050565b60006020820190508181036000830152613d4481613866565b9050919050565b6000602082019050613d606000830184613889565b92915050565b60008083356001602003843603038112613d7f57600080fd5b80840192508235915067ffffffffffffffff821115613d9d57600080fd5b602083019250600182023603831315613db557600080fd5b509250929050565b6000613dc7613dd8565b9050613dd38282614053565b919050565b6000604051905090565b600067ffffffffffffffff821115613dfd57613dfc614156565b5b613e0682614185565b9050602081019050919050565b600067ffffffffffffffff821115613e2e57613e2d614156565b5b613e3782614185565b9050602081019050919050565b60008190508160005260206000209050919050565b600081519050919050565b600081519050919050565b600082825260208201905092915050565b600082825260208201905092915050565b600081905092915050565b6000613ea782613fab565b9150613eb283613fab565b9250827fffffffffffffffffffffffffffffffffffffffffffffffffffffffffffffffff03821115613ee757613ee66140f8565b5b828201905092915050565b6000613efd82613fab565b9150613f0883613fab565b925082821015613f1b57613f1a6140f8565b5b828203905092915050565b6000613f3182613f8b565b9050919050565b60008115159050919050565b60007fffffffff0000000000000000000000000000000000000000000000000000000082169050919050565b60008160030b9050919050565b600061ffff82169050919050565b600073ffffffffffffffffffffffffffffffffffffffff82169050919050565b6000819050919050565b82818337600083830152505050565b60005b83811015613fe2578082015181840152602081019050613fc7565b83811115613ff1576000848401525b50505050565b600061400282613fab565b91506000821415614016576140156140f8565b5b600182039050919050565b6000600282049050600182168061403957607f821691505b6020821081141561404d5761404c614127565b5b50919050565b61405c82614185565b810181811067ffffffffffffffff8211171561407b5761407a614156565b5b80604052505050565b600061408f82613f7d565b915061ffff8214156140a4576140a36140f8565b5b600182019050919050565b60006140ba82613fab565b91507fffffffffffffffffffffffffffffffffffffffffffffffffffffffffffffffff8214156140ed576140ec6140f8565b5b600182019050919050565b7f4e487b7100000000000000000000000000000000000000000000000000000000600052601160045260246000fd5b7f4e487b7100000000000000000000000000000000000000000000000000000000600052602260045260246000fd5b7f4e487b7100000000000000000000000000000000000000000000000000000000600052604160045260246000fd5b6000601f19601f8301169050919050565b7f4d696e74696e6720756e617661696c61626c6500000000000000000000000000600082015250565b7f455243373231456e756d657261626c653a206f776e657220696e646578206f7560008201527f74206f6620626f756e6473000000000000000000000000000000000000000000602082015250565b7f5468697320746f6b656e20646f6573206e6f742065786973742e000000000000600082015250565b7f4552433732313a207472616e7366657220746f206e6f6e20455243373231526560008201527f63656976657220696d706c656d656e7465720000000000000000000000000000602082015250565b7f4f776e61626c653a206e6577206f776e657220697320746865207a65726f206160008201527f6464726573730000000000000000000000000000000000000000000000000000602082015250565b7f4e6f206970667300000000000000000000000000000000000000000000000000600082015250565b7f4552433732313a207472616e736665722066726f6d20696e636f72726563742060008201527f6f776e6572000000000000000000000000000000000000000000000000000000602082015250565b7f596f7520617265206e6f7420746865206f776e6572206f66207468697320746f60008201527f6b656e2e00000000000000000000000000000000000000000000000000000000602082015250565b7f416c6c20746f6b656e73206d696e746564000000000000000000000000000000600082015250565b7f4552433732313a20746f6b656e20616c7265616479206d696e74656400000000600082015250565b7f54686973204950465320686173682068617320616c7265616479206265656e2060008201527f61737369676e65642e0000000000000000000000000000000000000000000000602082015250565b7f4552433732313a207472616e7366657220746f20746865207a65726f2061646460008201527f7265737300000000000000000000000000000000000000000000000000000000602082015250565b7f4552433732313a20617070726f766520746f2063616c6c657200000000000000600082015250565b7f4552433732313a206f70657261746f7220717565727920666f72206e6f6e657860008201527f697374656e7420746f6b656e0000000000000000000000000000000000000000602082015250565b7f4552433732313a20617070726f76652063616c6c6572206973206e6f74206f7760008201527f6e6572206e6f7220617070726f76656420666f7220616c6c0000000000000000602082015250565b7f4552433732313a2062616c616e636520717565727920666f7220746865207a6560008201527f726f206164647265737300000000000000000000000000000000000000000000602082015250565b7f4552433732313a206f776e657220717565727920666f72206e6f6e657869737460008201527f656e7420746f6b656e0000000000000000000000000000000000000000000000602082015250565b7f4552433732313a206d696e7420746f20746865207a65726f2061646472657373600082015250565b7f4552433732313a20617070726f76656420717565727920666f72206e6f6e657860008201527f697374656e7420746f6b656e0000000000000000000000000000000000000000602082015250565b7f4f776e61626c653a2063616c6c6572206973206e6f7420746865206f776e6572600082015250565b7f4552433732314d657461646174613a2055524920717565727920666f72206e6f60008201527f6e6578697374656e7420746f6b656e0000000000000000000000000000000000602082015250565b7f4552433732313a20617070726f76616c20746f2063757272656e74206f776e6560008201527f7200000000000000000000000000000000000000000000000000000000000000602082015250565b7f417661696c61626c6520746f6b656e73206d696e746564000000000000000000600082015250565b7f4f776e6572206d696e74206c696d697400000000000000000000000000000000600082015250565b7f4552433732313a207472616e736665722063616c6c6572206973206e6f74206f60008201527f776e6572206e6f7220617070726f766564000000000000000000000000000000602082015250565b7f455243373231456e756d657261626c653a20676c6f62616c20696e646578206f60008201527f7574206f6620626f756e64730000000000000000000000000000000000000000602082015250565b7f596f752063616e6e6f74206d696e74206d6f72652e0000000000000000000000600082015250565b7f496e76616c696420746f6b656e2069642e000000000000000000000000000000600082015250565b7f5265656e7472616e637947756172643a207265656e7472616e742063616c6c00600082015250565b6148a481613f26565b81146148af57600080fd5b50565b6148bb81613f38565b81146148c657600080fd5b50565b6148d281613f44565b81146148dd57600080fd5b50565b6148e981613f70565b81146148f457600080fd5b50565b61490081613fab565b811461490b57600080fd5b5056fea26469706673582212209691b0ae8f7ec8f6334ca86f33c2bac041fc0439264128d3e7b512a611c5aac464736f6c63430008040033",
  "linkReferences": {},
  "deployedLinkReferences": {}
}